{
  "contractName": "NFTMarketplace",
  "abi": [
    {
      "inputs": [
        {
          "internalType": "contract IERC721Metadata",
          "name": "_nftContract",
          "type": "address"
        }
      ],
      "stateMutability": "nonpayable",
      "type": "constructor"
    },
    {
      "anonymous": false,
      "inputs": [
        {
          "indexed": true,
          "internalType": "uint256",
          "name": "tokenId",
          "type": "uint256"
        },
        {
          "indexed": false,
          "internalType": "uint256",
          "name": "price",
          "type": "uint256"
        },
        {
          "indexed": true,
          "internalType": "address",
          "name": "owner",
          "type": "address"
        }
      ],
      "name": "NFTListed",
      "type": "event"
    },
    {
      "anonymous": false,
      "inputs": [
        {
          "indexed": true,
          "internalType": "uint256",
          "name": "tokenId",
          "type": "uint256"
        },
        {
          "indexed": false,
          "internalType": "uint256",
          "name": "price",
          "type": "uint256"
        },
        {
          "indexed": true,
          "internalType": "address",
          "name": "buyer",
          "type": "address"
        },
        {
          "indexed": true,
          "internalType": "address",
          "name": "seller",
          "type": "address"
        }
      ],
      "name": "NFTSold",
      "type": "event"
    },
    {
      "inputs": [],
      "name": "nftContract",
      "outputs": [
        {
          "internalType": "contract IERC721Metadata",
          "name": "",
          "type": "address"
        }
      ],
      "stateMutability": "view",
      "type": "function",
      "constant": true
    },
    {
      "inputs": [
        {
          "internalType": "uint256",
          "name": "",
          "type": "uint256"
        }
      ],
      "name": "tokenOwner",
      "outputs": [
        {
          "internalType": "address",
          "name": "",
          "type": "address"
        }
      ],
      "stateMutability": "view",
      "type": "function",
      "constant": true
    },
    {
      "inputs": [
        {
          "internalType": "uint256",
          "name": "",
          "type": "uint256"
        }
      ],
      "name": "tokenPrice",
      "outputs": [
        {
          "internalType": "uint256",
          "name": "",
          "type": "uint256"
        }
      ],
      "stateMutability": "view",
      "type": "function",
      "constant": true
    },
    {
      "inputs": [
        {
          "internalType": "uint256",
          "name": "tokenId",
          "type": "uint256"
        },
        {
          "internalType": "uint256",
          "name": "price",
          "type": "uint256"
        }
      ],
      "name": "listNFT",
      "outputs": [],
      "stateMutability": "nonpayable",
      "type": "function"
    },
    {
      "inputs": [
        {
          "internalType": "uint256",
          "name": "tokenId",
          "type": "uint256"
        }
      ],
      "name": "unlistNFT",
      "outputs": [],
      "stateMutability": "nonpayable",
      "type": "function"
    },
    {
      "inputs": [
        {
          "internalType": "uint256",
          "name": "tokenId",
          "type": "uint256"
        }
      ],
      "name": "buyNFT",
      "outputs": [],
      "stateMutability": "payable",
      "type": "function",
      "payable": true
    }
  ],
  "bytecode": "0x60806040523480156200001157600080fd5b5060405162000f6438038062000f648339818101604052810190620000379190620000fc565b806000806101000a81548173ffffffffffffffffffffffffffffffffffffffff021916908373ffffffffffffffffffffffffffffffffffffffff160217905550506200012e565b600080fd5b600073ffffffffffffffffffffffffffffffffffffffff82169050919050565b6000620000b08262000083565b9050919050565b6000620000c482620000a3565b9050919050565b620000d681620000b7565b8114620000e257600080fd5b50565b600081519050620000f681620000cb565b92915050565b6000602082840312156200011557620001146200007e565b5b60006200012584828501620000e5565b91505092915050565b610e26806200013e6000396000f3fe6080604052600436106100555760003560e01c80631caaa4871461005a57806351ed82881461009757806394383f14146100b3578063961f0944146100dc578063d4ddce8a14610105578063d56d229d14610142575b600080fd5b34801561006657600080fd5b50610081600480360381019061007c91906108c0565b61016d565b60405161008e919061092e565b60405180910390f35b6100b160048036038101906100ac91906108c0565b6101a0565b005b3480156100bf57600080fd5b506100da60048036038101906100d59190610949565b610472565b005b3480156100e857600080fd5b5061010360048036038101906100fe91906108c0565b610707565b005b34801561011157600080fd5b5061012c600480360381019061012791906108c0565b610849565b6040516101399190610998565b60405180910390f35b34801561014e57600080fd5b50610157610861565b6040516101649190610a12565b60405180910390f35b60026020528060005260406000206000915054906101000a900473ffffffffffffffffffffffffffffffffffffffff1681565b60006002600083815260200190815260200160002060009054906101000a900473ffffffffffffffffffffffffffffffffffffffff16905060006001600084815260200190815260200160002054905060008111610233576040517f08c379a000000000000000000000000000000000000000000000000000000000815260040161022a90610a8a565b60405180910390fd5b80341015610276576040517f08c379a000000000000000000000000000000000000000000000000000000000815260040161026d90610af6565b60405180910390fd5b3373ffffffffffffffffffffffffffffffffffffffff168273ffffffffffffffffffffffffffffffffffffffff16036102e4576040517f08c379a00000000000000000000000000000000000000000000000000000000081526004016102db90610b62565b60405180910390fd5b60008054906101000a900473ffffffffffffffffffffffffffffffffffffffff1673ffffffffffffffffffffffffffffffffffffffff166323b872dd8333866040518463ffffffff1660e01b815260040161034193929190610b82565b600060405180830381600087803b15801561035b57600080fd5b505af115801561036f573d6000803e3d6000fd5b505050508173ffffffffffffffffffffffffffffffffffffffff166108fc829081150290604051600060405180830381858888f193505050501580156103b9573d6000803e3d6000fd5b5060016000848152602001908152602001600020600090556002600084815260200190815260200160002060006101000a81549073ffffffffffffffffffffffffffffffffffffffff02191690558173ffffffffffffffffffffffffffffffffffffffff163373ffffffffffffffffffffffffffffffffffffffff16847f2820044bbebd591ee7d08b7d81dd01945a1a32706da693a946e532d6d9884258846040516104659190610998565b60405180910390a4505050565b3373ffffffffffffffffffffffffffffffffffffffff1660008054906101000a900473ffffffffffffffffffffffffffffffffffffffff1673ffffffffffffffffffffffffffffffffffffffff16636352211e846040518263ffffffff1660e01b81526004016104e29190610998565b602060405180830381865afa1580156104ff573d6000803e3d6000fd5b505050506040513d601f19601f820116820180604052508101906105239190610be5565b73ffffffffffffffffffffffffffffffffffffffff1614610579576040517f08c379a000000000000000000000000000000000000000000000000000000000815260040161057090610c5e565b60405180910390fd5b600081116105bc576040517f08c379a00000000000000000000000000000000000000000000000000000000081526004016105b390610cca565b60405180910390fd5b806001600084815260200190815260200160002081905550336002600084815260200190815260200160002060006101000a81548173ffffffffffffffffffffffffffffffffffffffff021916908373ffffffffffffffffffffffffffffffffffffffff16021790555060008054906101000a900473ffffffffffffffffffffffffffffffffffffffff1673ffffffffffffffffffffffffffffffffffffffff1663a22cb4653060016040518363ffffffff1660e01b8152600401610682929190610d05565b600060405180830381600087803b15801561069c57600080fd5b505af11580156106b0573d6000803e3d6000fd5b505050503373ffffffffffffffffffffffffffffffffffffffff16827fd2ab19646d6f9fdd37206f962b4ebaab8a4a23ad87f7695e7e1736803cb8bf74836040516106fb9190610998565b60405180910390a35050565b3373ffffffffffffffffffffffffffffffffffffffff166002600083815260200190815260200160002060009054906101000a900473ffffffffffffffffffffffffffffffffffffffff1673ffffffffffffffffffffffffffffffffffffffff16146107a8576040517f08c379a000000000000000000000000000000000000000000000000000000000815260040161079f90610d7a565b60405180910390fd5b60016000828152602001908152602001600020600090556002600082815260200190815260200160002060006101000a81549073ffffffffffffffffffffffffffffffffffffffff0219169055600073ffffffffffffffffffffffffffffffffffffffff16817fd2ab19646d6f9fdd37206f962b4ebaab8a4a23ad87f7695e7e1736803cb8bf74600060405161083e9190610dd5565b60405180910390a350565b60016020528060005260406000206000915090505481565b60008054906101000a900473ffffffffffffffffffffffffffffffffffffffff1681565b600080fd5b6000819050919050565b61089d8161088a565b81146108a857600080fd5b50565b6000813590506108ba81610894565b92915050565b6000602082840312156108d6576108d5610885565b5b60006108e4848285016108ab565b91505092915050565b600073ffffffffffffffffffffffffffffffffffffffff82169050919050565b6000610918826108ed565b9050919050565b6109288161090d565b82525050565b6000602082019050610943600083018461091f565b92915050565b600080604083850312156109605761095f610885565b5b600061096e858286016108ab565b925050602061097f858286016108ab565b9150509250929050565b6109928161088a565b82525050565b60006020820190506109ad6000830184610989565b92915050565b6000819050919050565b60006109d86109d36109ce846108ed565b6109b3565b6108ed565b9050919050565b60006109ea826109bd565b9050919050565b60006109fc826109df565b9050919050565b610a0c816109f1565b82525050565b6000602082019050610a276000830184610a03565b92915050565b600082825260208201905092915050565b7f4e4654206e6f74206c697374656420666f722073616c65000000000000000000600082015250565b6000610a74601783610a2d565b9150610a7f82610a3e565b602082019050919050565b60006020820190508181036000830152610aa381610a67565b9050919050565b7f496e73756666696369656e742066756e64730000000000000000000000000000600082015250565b6000610ae0601283610a2d565b9150610aeb82610aaa565b602082019050919050565b60006020820190508181036000830152610b0f81610ad3565b9050919050565b7f43616e6e6f742062757920796f7572206f776e204e4654000000000000000000600082015250565b6000610b4c601783610a2d565b9150610b5782610b16565b602082019050919050565b60006020820190508181036000830152610b7b81610b3f565b9050919050565b6000606082019050610b97600083018661091f565b610ba4602083018561091f565b610bb16040830184610989565b949350505050565b610bc28161090d565b8114610bcd57600080fd5b50565b600081519050610bdf81610bb9565b92915050565b600060208284031215610bfb57610bfa610885565b5b6000610c0984828501610bd0565b91505092915050565b7f4f6e6c79204e4654206f776e65722063616e206c697374000000000000000000600082015250565b6000610c48601783610a2d565b9150610c5382610c12565b602082019050919050565b60006020820190508181036000830152610c7781610c3b565b9050919050565b7f5072696365206d7573742062652067726561746572207468616e207a65726f00600082015250565b6000610cb4601f83610a2d565b9150610cbf82610c7e565b602082019050919050565b60006020820190508181036000830152610ce381610ca7565b9050919050565b60008115159050919050565b610cff81610cea565b82525050565b6000604082019050610d1a600083018561091f565b610d276020830184610cf6565b9392505050565b7f4f6e6c79204e4654206f776e65722063616e20756e6c69737400000000000000600082015250565b6000610d64601983610a2d565b9150610d6f82610d2e565b602082019050919050565b60006020820190508181036000830152610d9381610d57565b9050919050565b6000819050919050565b6000610dbf610dba610db584610d9a565b6109b3565b61088a565b9050919050565b610dcf81610da4565b82525050565b6000602082019050610dea6000830184610dc6565b9291505056fea26469706673582212206d010ad1ae1fdcc621adb7afdc923b73b58ece33d6a0aa2dbabf115f4600152364736f6c63430008130033",
  "immutableReferences": {},
  "source": "// SPDX-License-Identifier: MIT\npragma solidity ^0.8.0;\n\nimport \"@openzeppelin/contracts/token/ERC721/extensions/IERC721Metadata.sol\";\nimport \"@openzeppelin/contracts/utils/math/SafeMath.sol\";\n\ncontract NFTMarketplace {\n    using SafeMath for uint256;\n\n    // NFT contract\n    IERC721Metadata public nftContract;\n\n    // Mapping from tokenId to price and owner\n    mapping (uint256 => uint256) public tokenPrice;\n    mapping (uint256 => address) public tokenOwner;\n\n    // Event for when an NFT is listed\n    event NFTListed(uint256 indexed tokenId, uint256 price, address indexed owner);\n\n    // Event for when an NFT is sold\n    event NFTSold(uint256 indexed tokenId, uint256 price, address indexed buyer, address indexed seller);\n\n    constructor(IERC721Metadata _nftContract) {\n        nftContract = _nftContract;\n    }\n\n    // List an NFT for sale at a specified price\n    function listNFT(uint256 tokenId, uint256 price) public {\n        require(nftContract.ownerOf(tokenId) == msg.sender, \"Only NFT owner can list\");\n        require(price > 0, \"Price must be greater than zero\");\n\n        tokenPrice[tokenId] = price;\n        tokenOwner[tokenId] = msg.sender;\n        nftContract.setApprovalForAll(address(this), true);\n  \n        emit NFTListed(tokenId, price, msg.sender);\n    }\n\n    // Remove an NFT from the marketplace\n    function unlistNFT(uint256 tokenId) public {\n        require(tokenOwner[tokenId] == msg.sender, \"Only NFT owner can unlist\");\n\n        delete tokenPrice[tokenId];\n        delete tokenOwner[tokenId];\n\n        emit NFTListed(tokenId, 0, address(0));\n    }\n\n    // Buy an NFT from the marketplace\n    function buyNFT(uint256 tokenId) public payable {\n        address seller = tokenOwner[tokenId];\n        uint256 price = tokenPrice[tokenId];\n\n        require(price > 0, \"NFT not listed for sale\");\n        require(msg.value >= price, \"Insufficient funds\");\n        require(seller != msg.sender, \"Cannot buy your own NFT\");\n\n        // Transfer ownership of NFT to buyer\n        nftContract.transferFrom(seller, msg.sender, tokenId);\n\n        // Transfer funds to seller\n        payable(seller).transfer(price);\n\n        // Update mapping\n        delete tokenPrice[tokenId];\n        delete tokenOwner[tokenId];\n        \n        emit NFTSold(tokenId, price, msg.sender, seller);\n    }\n}\n",
  "sourcePath": "/Users/javiershen/Documents/GitHub/prueba-tecnica-sede/royalty/contracts/NFTMarketplace.sol",
  "compiler": {
    "name": "solc",
    "version": "0.8.19+commit.7dd6d404.Emscripten.clang"
  },
  "schemaVersion": "3.4.13",
  "updatedAt": "2023-03-14T16:05:28.905Z",
  "networkType": "ethereum",
  "devdoc": {
    "kind": "dev",
    "methods": {},
    "version": 1
  },
  "userdoc": {
    "kind": "user",
    "methods": {},
    "version": 1
  }
}