{
  "contractName": "RoyaltyNFT",
  "abi": [
    {
      "inputs": [],
      "stateMutability": "nonpayable",
      "type": "constructor"
    },
    {
      "anonymous": false,
      "inputs": [
        {
          "indexed": true,
          "internalType": "address",
          "name": "owner",
          "type": "address"
        },
        {
          "indexed": true,
          "internalType": "address",
          "name": "approved",
          "type": "address"
        },
        {
          "indexed": true,
          "internalType": "uint256",
          "name": "tokenId",
          "type": "uint256"
        }
      ],
      "name": "Approval",
      "type": "event"
    },
    {
      "anonymous": false,
      "inputs": [
        {
          "indexed": true,
          "internalType": "address",
          "name": "owner",
          "type": "address"
        },
        {
          "indexed": true,
          "internalType": "address",
          "name": "operator",
          "type": "address"
        },
        {
          "indexed": false,
          "internalType": "bool",
          "name": "approved",
          "type": "bool"
        }
      ],
      "name": "ApprovalForAll",
      "type": "event"
    },
    {
      "anonymous": false,
      "inputs": [
        {
          "indexed": true,
          "internalType": "address",
          "name": "previousOwner",
          "type": "address"
        },
        {
          "indexed": true,
          "internalType": "address",
          "name": "newOwner",
          "type": "address"
        }
      ],
      "name": "OwnershipTransferred",
      "type": "event"
    },
    {
      "anonymous": false,
      "inputs": [
        {
          "indexed": true,
          "internalType": "address",
          "name": "from",
          "type": "address"
        },
        {
          "indexed": true,
          "internalType": "address",
          "name": "to",
          "type": "address"
        },
        {
          "indexed": true,
          "internalType": "uint256",
          "name": "tokenId",
          "type": "uint256"
        }
      ],
      "name": "Transfer",
      "type": "event"
    },
    {
      "inputs": [
        {
          "internalType": "address",
          "name": "to",
          "type": "address"
        },
        {
          "internalType": "uint256",
          "name": "tokenId",
          "type": "uint256"
        }
      ],
      "name": "approve",
      "outputs": [],
      "stateMutability": "nonpayable",
      "type": "function"
    },
    {
      "inputs": [
        {
          "internalType": "address",
          "name": "owner",
          "type": "address"
        }
      ],
      "name": "balanceOf",
      "outputs": [
        {
          "internalType": "uint256",
          "name": "",
          "type": "uint256"
        }
      ],
      "stateMutability": "view",
      "type": "function",
      "constant": true
    },
    {
      "inputs": [
        {
          "internalType": "uint256",
          "name": "tokenId",
          "type": "uint256"
        }
      ],
      "name": "getApproved",
      "outputs": [
        {
          "internalType": "address",
          "name": "",
          "type": "address"
        }
      ],
      "stateMutability": "view",
      "type": "function",
      "constant": true
    },
    {
      "inputs": [
        {
          "internalType": "address",
          "name": "owner",
          "type": "address"
        },
        {
          "internalType": "address",
          "name": "operator",
          "type": "address"
        }
      ],
      "name": "isApprovedForAll",
      "outputs": [
        {
          "internalType": "bool",
          "name": "",
          "type": "bool"
        }
      ],
      "stateMutability": "view",
      "type": "function",
      "constant": true
    },
    {
      "inputs": [],
      "name": "name",
      "outputs": [
        {
          "internalType": "string",
          "name": "",
          "type": "string"
        }
      ],
      "stateMutability": "view",
      "type": "function",
      "constant": true
    },
    {
      "inputs": [],
      "name": "owner",
      "outputs": [
        {
          "internalType": "address",
          "name": "",
          "type": "address"
        }
      ],
      "stateMutability": "view",
      "type": "function",
      "constant": true
    },
    {
      "inputs": [
        {
          "internalType": "uint256",
          "name": "tokenId",
          "type": "uint256"
        }
      ],
      "name": "ownerOf",
      "outputs": [
        {
          "internalType": "address",
          "name": "",
          "type": "address"
        }
      ],
      "stateMutability": "view",
      "type": "function",
      "constant": true
    },
    {
      "inputs": [],
      "name": "renounceOwnership",
      "outputs": [],
      "stateMutability": "nonpayable",
      "type": "function"
    },
    {
      "inputs": [
        {
          "internalType": "uint256",
          "name": "_tokenId",
          "type": "uint256"
        },
        {
          "internalType": "uint256",
          "name": "_salePrice",
          "type": "uint256"
        }
      ],
      "name": "royaltyInfo",
      "outputs": [
        {
          "internalType": "address",
          "name": "",
          "type": "address"
        },
        {
          "internalType": "uint256",
          "name": "",
          "type": "uint256"
        }
      ],
      "stateMutability": "view",
      "type": "function",
      "constant": true
    },
    {
      "inputs": [
        {
          "internalType": "address",
          "name": "from",
          "type": "address"
        },
        {
          "internalType": "address",
          "name": "to",
          "type": "address"
        },
        {
          "internalType": "uint256",
          "name": "tokenId",
          "type": "uint256"
        }
      ],
      "name": "safeTransferFrom",
      "outputs": [],
      "stateMutability": "nonpayable",
      "type": "function"
    },
    {
      "inputs": [
        {
          "internalType": "address",
          "name": "from",
          "type": "address"
        },
        {
          "internalType": "address",
          "name": "to",
          "type": "address"
        },
        {
          "internalType": "uint256",
          "name": "tokenId",
          "type": "uint256"
        },
        {
          "internalType": "bytes",
          "name": "data",
          "type": "bytes"
        }
      ],
      "name": "safeTransferFrom",
      "outputs": [],
      "stateMutability": "nonpayable",
      "type": "function"
    },
    {
      "inputs": [],
      "name": "symbol",
      "outputs": [
        {
          "internalType": "string",
          "name": "",
          "type": "string"
        }
      ],
      "stateMutability": "view",
      "type": "function",
      "constant": true
    },
    {
      "inputs": [
        {
          "internalType": "uint256",
          "name": "tokenId",
          "type": "uint256"
        }
      ],
      "name": "tokenURI",
      "outputs": [
        {
          "internalType": "string",
          "name": "",
          "type": "string"
        }
      ],
      "stateMutability": "view",
      "type": "function",
      "constant": true
    },
    {
      "inputs": [
        {
          "internalType": "address",
          "name": "from",
          "type": "address"
        },
        {
          "internalType": "address",
          "name": "to",
          "type": "address"
        },
        {
          "internalType": "uint256",
          "name": "tokenId",
          "type": "uint256"
        }
      ],
      "name": "transferFrom",
      "outputs": [],
      "stateMutability": "nonpayable",
      "type": "function"
    },
    {
      "inputs": [
        {
          "internalType": "address",
          "name": "newOwner",
          "type": "address"
        }
      ],
      "name": "transferOwnership",
      "outputs": [],
      "stateMutability": "nonpayable",
      "type": "function"
    },
    {
      "inputs": [
        {
          "internalType": "bytes4",
          "name": "interfaceId",
          "type": "bytes4"
        }
      ],
      "name": "supportsInterface",
      "outputs": [
        {
          "internalType": "bool",
          "name": "",
          "type": "bool"
        }
      ],
      "stateMutability": "view",
      "type": "function",
      "constant": true
    },
    {
      "inputs": [
        {
          "internalType": "uint256",
          "name": "tokenId",
          "type": "uint256"
        }
      ],
      "name": "burnNFT",
      "outputs": [],
      "stateMutability": "nonpayable",
      "type": "function"
    },
    {
      "inputs": [
        {
          "internalType": "address",
          "name": "recipient",
          "type": "address"
        },
        {
          "internalType": "string",
          "name": "tokenURI",
          "type": "string"
        }
      ],
      "name": "mintNFT",
      "outputs": [
        {
          "internalType": "uint256",
          "name": "",
          "type": "uint256"
        }
      ],
      "stateMutability": "nonpayable",
      "type": "function"
    },
    {
      "inputs": [
        {
          "internalType": "address",
          "name": "recipient",
          "type": "address"
        },
        {
          "internalType": "string",
          "name": "tokenURI",
          "type": "string"
        },
        {
          "internalType": "address",
          "name": "royaltyReceiver",
          "type": "address"
        },
        {
          "internalType": "uint96",
          "name": "feeNumerator",
          "type": "uint96"
        }
      ],
      "name": "mintNFTWithRoyalty",
      "outputs": [
        {
          "internalType": "uint256",
          "name": "",
          "type": "uint256"
        }
      ],
      "stateMutability": "nonpayable",
      "type": "function"
    },
    {
      "inputs": [
        {
          "internalType": "address",
          "name": "operator",
          "type": "address"
        },
        {
          "internalType": "bool",
          "name": "approved",
          "type": "bool"
        }
      ],
      "name": "setApprovalForAll",
      "outputs": [],
      "stateMutability": "nonpayable",
      "type": "function"
    }
  ],
  "bytecode": "0x60806040523480156200001157600080fd5b506040518060400160405280600a81526020017f526f79616c74794e4654000000000000000000000000000000000000000000008152506040518060400160405280600481526020017f524e46540000000000000000000000000000000000000000000000000000000081525081600090816200008f9190620005d2565b508060019081620000a19190620005d2565b505050620000c4620000b8620000dd60201b60201c565b620000e560201b60201c565b620000d7336064620001ab60201b60201c565b620007d4565b600033905090565b6000600960009054906101000a900473ffffffffffffffffffffffffffffffffffffffff16905081600960006101000a81548173ffffffffffffffffffffffffffffffffffffffff021916908373ffffffffffffffffffffffffffffffffffffffff1602179055508173ffffffffffffffffffffffffffffffffffffffff168173ffffffffffffffffffffffffffffffffffffffff167f8be0079c531659141344cd1fd0a4f28419497f9722a3daafe3b4186f6b6457e060405160405180910390a35050565b620001bb6200034e60201b60201c565b6bffffffffffffffffffffffff16816bffffffffffffffffffffffff1611156200021c576040517f08c379a0000000000000000000000000000000000000000000000000000000008152600401620002139062000740565b60405180910390fd5b600073ffffffffffffffffffffffffffffffffffffffff168273ffffffffffffffffffffffffffffffffffffffff16036200028e576040517f08c379a00000000000000000000000000000000000000000000000000000000081526004016200028590620007b2565b60405180910390fd5b60405180604001604052808373ffffffffffffffffffffffffffffffffffffffff168152602001826bffffffffffffffffffffffff16815250600760008201518160000160006101000a81548173ffffffffffffffffffffffffffffffffffffffff021916908373ffffffffffffffffffffffffffffffffffffffff16021790555060208201518160000160146101000a8154816bffffffffffffffffffffffff02191690836bffffffffffffffffffffffff1602179055509050505050565b6000612710905090565b600081519050919050565b7f4e487b7100000000000000000000000000000000000000000000000000000000600052604160045260246000fd5b7f4e487b7100000000000000000000000000000000000000000000000000000000600052602260045260246000fd5b60006002820490506001821680620003da57607f821691505b602082108103620003f057620003ef62000392565b5b50919050565b60008190508160005260206000209050919050565b60006020601f8301049050919050565b600082821b905092915050565b6000600883026200045a7fffffffffffffffffffffffffffffffffffffffffffffffffffffffffffffffff826200041b565b6200046686836200041b565b95508019841693508086168417925050509392505050565b6000819050919050565b6000819050919050565b6000620004b3620004ad620004a7846200047e565b62000488565b6200047e565b9050919050565b6000819050919050565b620004cf8362000492565b620004e7620004de82620004ba565b84845462000428565b825550505050565b600090565b620004fe620004ef565b6200050b818484620004c4565b505050565b5b81811015620005335762000527600082620004f4565b60018101905062000511565b5050565b601f82111562000582576200054c81620003f6565b62000557846200040b565b8101602085101562000567578190505b6200057f62000576856200040b565b83018262000510565b50505b505050565b600082821c905092915050565b6000620005a76000198460080262000587565b1980831691505092915050565b6000620005c2838362000594565b9150826002028217905092915050565b620005dd8262000358565b67ffffffffffffffff811115620005f957620005f862000363565b5b620006058254620003c1565b6200061282828562000537565b600060209050601f8311600181146200064a576000841562000635578287015190505b620006418582620005b4565b865550620006b1565b601f1984166200065a86620003f6565b60005b8281101562000684578489015182556001820191506020850194506020810190506200065d565b86831015620006a45784890151620006a0601f89168262000594565b8355505b6001600288020188555050505b505050505050565b600082825260208201905092915050565b7f455243323938313a20726f79616c7479206665652077696c6c2065786365656460008201527f2073616c65507269636500000000000000000000000000000000000000000000602082015250565b600062000728602a83620006b9565b91506200073582620006ca565b604082019050919050565b600060208201905081810360008301526200075b8162000719565b9050919050565b7f455243323938313a20696e76616c696420726563656976657200000000000000600082015250565b60006200079a601983620006b9565b9150620007a78262000762565b602082019050919050565b60006020820190508181036000830152620007cd816200078b565b9050919050565b61388980620007e46000396000f3fe608060405234801561001057600080fd5b506004361061012c5760003560e01c8063715018a6116100ad578063b88d4fde11610071578063b88d4fde14610342578063c87b56dd1461035e578063e985e9c51461038e578063eacabe14146103be578063f2fde38b146103ee5761012c565b8063715018a6146102b057806375eacc20146102ba5780638da5cb5b146102ea57806395d89b4114610308578063a22cb465146103265761012c565b80632890e0d7116100f45780632890e0d7146101e75780632a55205a1461020357806342842e0e146102345780636352211e1461025057806370a08231146102805761012c565b806301ffc9a71461013157806306fdde0314610161578063081812fc1461017f578063095ea7b3146101af57806323b872dd146101cb575b600080fd5b61014b600480360381019061014691906123aa565b61040a565b60405161015891906123f2565b60405180910390f35b61016961041c565b604051610176919061249d565b60405180910390f35b610199600480360381019061019491906124f5565b6104ae565b6040516101a69190612563565b60405180910390f35b6101c960048036038101906101c491906125aa565b6104f4565b005b6101e560048036038101906101e091906125ea565b61060b565b005b61020160048036038101906101fc91906124f5565b61066b565b005b61021d6004803603810190610218919061263d565b61067f565b60405161022b92919061268c565b60405180910390f35b61024e600480360381019061024991906125ea565b610869565b005b61026a600480360381019061026591906124f5565b610889565b6040516102779190612563565b60405180910390f35b61029a600480360381019061029591906126b5565b61090f565b6040516102a791906126e2565b60405180910390f35b6102b86109c6565b005b6102d460048036038101906102cf9190612876565b6109da565b6040516102e191906126e2565b60405180910390f35b6102f2610a09565b6040516102ff9190612563565b60405180910390f35b610310610a33565b60405161031d919061249d565b60405180910390f35b610340600480360381019061033b9190612925565b610ac5565b005b61035c60048036038101906103579190612a06565b610ad3565b005b610378600480360381019061037391906124f5565b610b35565b604051610385919061249d565b60405180910390f35b6103a860048036038101906103a39190612a89565b610c47565b6040516103b591906123f2565b60405180910390f35b6103d860048036038101906103d39190612ac9565b610cdb565b6040516103e591906126e2565b60405180910390f35b610408600480360381019061040391906126b5565b610d1b565b005b600061041582610d9e565b9050919050565b60606000805461042b90612b54565b80601f016020809104026020016040519081016040528092919081815260200182805461045790612b54565b80156104a45780601f10610479576101008083540402835291602001916104a4565b820191906000526020600020905b81548152906001019060200180831161048757829003601f168201915b5050505050905090565b60006104b982610e18565b6004600083815260200190815260200160002060009054906101000a900473ffffffffffffffffffffffffffffffffffffffff169050919050565b60006104ff82610889565b90508073ffffffffffffffffffffffffffffffffffffffff168373ffffffffffffffffffffffffffffffffffffffff160361056f576040517f08c379a000000000000000000000000000000000000000000000000000000000815260040161056690612bf7565b60405180910390fd5b8073ffffffffffffffffffffffffffffffffffffffff1661058e610e63565b73ffffffffffffffffffffffffffffffffffffffff1614806105bd57506105bc816105b7610e63565b610c47565b5b6105fc576040517f08c379a00000000000000000000000000000000000000000000000000000000081526004016105f390612c89565b60405180910390fd5b6106068383610e6b565b505050565b61061c610616610e63565b82610f24565b61065b576040517f08c379a000000000000000000000000000000000000000000000000000000000815260040161065290612d1b565b60405180910390fd5b610666838383610fb9565b505050565b6106736112b2565b61067c81611330565b50565b6000806000600860008681526020019081526020016000206040518060400160405290816000820160009054906101000a900473ffffffffffffffffffffffffffffffffffffffff1673ffffffffffffffffffffffffffffffffffffffff1673ffffffffffffffffffffffffffffffffffffffff1681526020016000820160149054906101000a90046bffffffffffffffffffffffff166bffffffffffffffffffffffff166bffffffffffffffffffffffff16815250509050600073ffffffffffffffffffffffffffffffffffffffff16816000015173ffffffffffffffffffffffffffffffffffffffff16036108145760076040518060400160405290816000820160009054906101000a900473ffffffffffffffffffffffffffffffffffffffff1673ffffffffffffffffffffffffffffffffffffffff1673ffffffffffffffffffffffffffffffffffffffff1681526020016000820160149054906101000a90046bffffffffffffffffffffffff166bffffffffffffffffffffffff166bffffffffffffffffffffffff168152505090505b600061081e611345565b6bffffffffffffffffffffffff1682602001516bffffffffffffffffffffffff168661084a9190612d6a565b6108549190612ddb565b90508160000151819350935050509250929050565b61088483838360405180602001604052806000815250610ad3565b505050565b6000806108958361134f565b9050600073ffffffffffffffffffffffffffffffffffffffff168173ffffffffffffffffffffffffffffffffffffffff1603610906576040517f08c379a00000000000000000000000000000000000000000000000000000000081526004016108fd90612e58565b60405180910390fd5b80915050919050565b60008073ffffffffffffffffffffffffffffffffffffffff168273ffffffffffffffffffffffffffffffffffffffff160361097f576040517f08c379a000000000000000000000000000000000000000000000000000000000815260040161097690612eea565b60405180910390fd5b600360008373ffffffffffffffffffffffffffffffffffffffff1673ffffffffffffffffffffffffffffffffffffffff168152602001908152602001600020549050919050565b6109ce6112b2565b6109d8600061138c565b565b60006109e46112b2565b60006109f08686610cdb565b90506109fd818585611452565b80915050949350505050565b6000600960009054906101000a900473ffffffffffffffffffffffffffffffffffffffff16905090565b606060018054610a4290612b54565b80601f0160208091040260200160405190810160405280929190818152602001828054610a6e90612b54565b8015610abb5780601f10610a9057610100808354040283529160200191610abb565b820191906000526020600020905b815481529060010190602001808311610a9e57829003601f168201915b5050505050905090565b610acf82826115f9565b5050565b610ae4610ade610e63565b83610f24565b610b23576040517f08c379a0000000000000000000000000000000000000000000000000000000008152600401610b1a90612d1b565b60405180910390fd5b610b2f8484848461160f565b50505050565b6060610b4082610e18565b6000600660008481526020019081526020016000208054610b6090612b54565b80601f0160208091040260200160405190810160405280929190818152602001828054610b8c90612b54565b8015610bd95780601f10610bae57610100808354040283529160200191610bd9565b820191906000526020600020905b815481529060010190602001808311610bbc57829003601f168201915b505050505090506000610bea61166b565b90506000815103610bff578192505050610c42565b600082511115610c34578082604051602001610c1c929190612f46565b60405160208183030381529060405292505050610c42565b610c3d84611682565b925050505b919050565b6000600560008473ffffffffffffffffffffffffffffffffffffffff1673ffffffffffffffffffffffffffffffffffffffff16815260200190815260200160002060008373ffffffffffffffffffffffffffffffffffffffff1673ffffffffffffffffffffffffffffffffffffffff16815260200190815260200160002060009054906101000a900460ff16905092915050565b6000610ce56112b2565b610cef600a6116ea565b6000610cfb600a611700565b9050610d07848261170e565b610d11818461172c565b8091505092915050565b610d236112b2565b600073ffffffffffffffffffffffffffffffffffffffff168173ffffffffffffffffffffffffffffffffffffffff1603610d92576040517f08c379a0000000000000000000000000000000000000000000000000000000008152600401610d8990612fdc565b60405180910390fd5b610d9b8161138c565b50565b60007f2a55205a000000000000000000000000000000000000000000000000000000007bffffffffffffffffffffffffffffffffffffffffffffffffffffffff1916827bffffffffffffffffffffffffffffffffffffffffffffffffffffffff19161480610e115750610e1082611799565b5b9050919050565b610e218161187b565b610e60576040517f08c379a0000000000000000000000000000000000000000000000000000000008152600401610e5790612e58565b60405180910390fd5b50565b600033905090565b816004600083815260200190815260200160002060006101000a81548173ffffffffffffffffffffffffffffffffffffffff021916908373ffffffffffffffffffffffffffffffffffffffff160217905550808273ffffffffffffffffffffffffffffffffffffffff16610ede83610889565b73ffffffffffffffffffffffffffffffffffffffff167f8c5be1e5ebec7d5bd14f71427d1e84f3dd0314c0f7b2291e5b200ac8c7c3b92560405160405180910390a45050565b600080610f3083610889565b90508073ffffffffffffffffffffffffffffffffffffffff168473ffffffffffffffffffffffffffffffffffffffff161480610f725750610f718185610c47565b5b80610fb057508373ffffffffffffffffffffffffffffffffffffffff16610f98846104ae565b73ffffffffffffffffffffffffffffffffffffffff16145b91505092915050565b8273ffffffffffffffffffffffffffffffffffffffff16610fd982610889565b73ffffffffffffffffffffffffffffffffffffffff161461102f576040517f08c379a00000000000000000000000000000000000000000000000000000000081526004016110269061306e565b60405180910390fd5b600073ffffffffffffffffffffffffffffffffffffffff168273ffffffffffffffffffffffffffffffffffffffff160361109e576040517f08c379a000000000000000000000000000000000000000000000000000000000815260040161109590613100565b60405180910390fd5b6110ab83838360016118bc565b8273ffffffffffffffffffffffffffffffffffffffff166110cb82610889565b73ffffffffffffffffffffffffffffffffffffffff1614611121576040517f08c379a00000000000000000000000000000000000000000000000000000000081526004016111189061306e565b60405180910390fd5b6004600082815260200190815260200160002060006101000a81549073ffffffffffffffffffffffffffffffffffffffff02191690556001600360008573ffffffffffffffffffffffffffffffffffffffff1673ffffffffffffffffffffffffffffffffffffffff168152602001908152602001600020600082825403925050819055506001600360008473ffffffffffffffffffffffffffffffffffffffff1673ffffffffffffffffffffffffffffffffffffffff16815260200190815260200160002060008282540192505081905550816002600083815260200190815260200160002060006101000a81548173ffffffffffffffffffffffffffffffffffffffff021916908373ffffffffffffffffffffffffffffffffffffffff160217905550808273ffffffffffffffffffffffffffffffffffffffff168473ffffffffffffffffffffffffffffffffffffffff167fddf252ad1be2c89b69c2b068fc378daa952ba7f163c4a11628f55a4df523b3ef60405160405180910390a46112ad83838360016118c2565b505050565b6112ba610e63565b73ffffffffffffffffffffffffffffffffffffffff166112d8610a09565b73ffffffffffffffffffffffffffffffffffffffff161461132e576040517f08c379a00000000000000000000000000000000000000000000000000000000081526004016113259061316c565b60405180910390fd5b565b611339816118c8565b6113428161191b565b50565b6000612710905090565b60006002600083815260200190815260200160002060009054906101000a900473ffffffffffffffffffffffffffffffffffffffff169050919050565b6000600960009054906101000a900473ffffffffffffffffffffffffffffffffffffffff16905081600960006101000a81548173ffffffffffffffffffffffffffffffffffffffff021916908373ffffffffffffffffffffffffffffffffffffffff1602179055508173ffffffffffffffffffffffffffffffffffffffff168173ffffffffffffffffffffffffffffffffffffffff167f8be0079c531659141344cd1fd0a4f28419497f9722a3daafe3b4186f6b6457e060405160405180910390a35050565b61145a611345565b6bffffffffffffffffffffffff16816bffffffffffffffffffffffff1611156114b8576040517f08c379a00000000000000000000000000000000000000000000000000000000081526004016114af906131fe565b60405180910390fd5b600073ffffffffffffffffffffffffffffffffffffffff168273ffffffffffffffffffffffffffffffffffffffff1603611527576040517f08c379a000000000000000000000000000000000000000000000000000000000815260040161151e9061326a565b60405180910390fd5b60405180604001604052808373ffffffffffffffffffffffffffffffffffffffff168152602001826bffffffffffffffffffffffff168152506008600085815260200190815260200160002060008201518160000160006101000a81548173ffffffffffffffffffffffffffffffffffffffff021916908373ffffffffffffffffffffffffffffffffffffffff16021790555060208201518160000160146101000a8154816bffffffffffffffffffffffff02191690836bffffffffffffffffffffffff160217905550905050505050565b61160b611604610e63565b838361197a565b5050565b61161a848484610fb9565b61162684848484611ae6565b611665576040517f08c379a000000000000000000000000000000000000000000000000000000000815260040161165c906132fc565b60405180910390fd5b50505050565b606060405180602001604052806000815250905090565b606061168d82610e18565b600061169761166b565b905060008151116116b757604051806020016040528060008152506116e2565b806116c184611c6d565b6040516020016116d2929190612f46565b6040516020818303038152906040525b915050919050565b6001816000016000828254019250508190555050565b600081600001549050919050565b611728828260405180602001604052806000815250611d3b565b5050565b6117358261187b565b611774576040517f08c379a000000000000000000000000000000000000000000000000000000000815260040161176b9061338e565b60405180910390fd5b80600660008481526020019081526020016000209081611794919061355a565b505050565b60007f80ac58cd000000000000000000000000000000000000000000000000000000007bffffffffffffffffffffffffffffffffffffffffffffffffffffffff1916827bffffffffffffffffffffffffffffffffffffffffffffffffffffffff1916148061186457507f5b5e139f000000000000000000000000000000000000000000000000000000007bffffffffffffffffffffffffffffffffffffffffffffffffffffffff1916827bffffffffffffffffffffffffffffffffffffffffffffffffffffffff1916145b80611874575061187382611d96565b5b9050919050565b60008073ffffffffffffffffffffffffffffffffffffffff1661189d8361134f565b73ffffffffffffffffffffffffffffffffffffffff1614159050919050565b50505050565b50505050565b6118d181611e00565b60006006600083815260200190815260200160002080546118f190612b54565b9050146119185760066000828152602001908152602001600020600061191791906122e1565b5b50565b60086000828152602001908152602001600020600080820160006101000a81549073ffffffffffffffffffffffffffffffffffffffff02191690556000820160146101000a8154906bffffffffffffffffffffffff0219169055505050565b8173ffffffffffffffffffffffffffffffffffffffff168373ffffffffffffffffffffffffffffffffffffffff16036119e8576040517f08c379a00000000000000000000000000000000000000000000000000000000081526004016119df90613678565b60405180910390fd5b80600560008573ffffffffffffffffffffffffffffffffffffffff1673ffffffffffffffffffffffffffffffffffffffff16815260200190815260200160002060008473ffffffffffffffffffffffffffffffffffffffff1673ffffffffffffffffffffffffffffffffffffffff16815260200190815260200160002060006101000a81548160ff0219169083151502179055508173ffffffffffffffffffffffffffffffffffffffff168373ffffffffffffffffffffffffffffffffffffffff167f17307eab39ab6107e8899845ad3d59bd9653f200f220920489ca2b5937696c3183604051611ad991906123f2565b60405180910390a3505050565b6000611b078473ffffffffffffffffffffffffffffffffffffffff16611f4e565b15611c60578373ffffffffffffffffffffffffffffffffffffffff1663150b7a02611b30610e63565b8786866040518563ffffffff1660e01b8152600401611b5294939291906136ed565b6020604051808303816000875af1925050508015611b8e57506040513d601f19601f82011682018060405250810190611b8b919061374e565b60015b611c10573d8060008114611bbe576040519150601f19603f3d011682016040523d82523d6000602084013e611bc3565b606091505b506000815103611c08576040517f08c379a0000000000000000000000000000000000000000000000000000000008152600401611bff906132fc565b60405180910390fd5b805181602001fd5b63150b7a0260e01b7bffffffffffffffffffffffffffffffffffffffffffffffffffffffff1916817bffffffffffffffffffffffffffffffffffffffffffffffffffffffff191614915050611c65565b600190505b949350505050565b606060006001611c7c84611f71565b01905060008167ffffffffffffffff811115611c9b57611c9a612707565b5b6040519080825280601f01601f191660200182016040528015611ccd5781602001600182028036833780820191505090505b509050600082602001820190505b600115611d30578080600190039150507f3031323334353637383961626364656600000000000000000000000000000000600a86061a8153600a8581611d2457611d23612dac565b5b04945060008503611cdb575b819350505050919050565b611d4583836120c4565b611d526000848484611ae6565b611d91576040517f08c379a0000000000000000000000000000000000000000000000000000000008152600401611d88906132fc565b60405180910390fd5b505050565b60007f01ffc9a7000000000000000000000000000000000000000000000000000000007bffffffffffffffffffffffffffffffffffffffffffffffffffffffff1916827bffffffffffffffffffffffffffffffffffffffffffffffffffffffff1916149050919050565b6000611e0b82610889565b9050611e1b8160008460016118bc565b611e2482610889565b90506004600083815260200190815260200160002060006101000a81549073ffffffffffffffffffffffffffffffffffffffff02191690556001600360008373ffffffffffffffffffffffffffffffffffffffff1673ffffffffffffffffffffffffffffffffffffffff168152602001908152602001600020600082825403925050819055506002600083815260200190815260200160002060006101000a81549073ffffffffffffffffffffffffffffffffffffffff021916905581600073ffffffffffffffffffffffffffffffffffffffff168273ffffffffffffffffffffffffffffffffffffffff167fddf252ad1be2c89b69c2b068fc378daa952ba7f163c4a11628f55a4df523b3ef60405160405180910390a4611f4a8160008460016118c2565b5050565b6000808273ffffffffffffffffffffffffffffffffffffffff163b119050919050565b600080600090507a184f03e93ff9f4daa797ed6e38ed64bf6a1f0100000000000000008310611fcf577a184f03e93ff9f4daa797ed6e38ed64bf6a1f0100000000000000008381611fc557611fc4612dac565b5b0492506040810190505b6d04ee2d6d415b85acef8100000000831061200c576d04ee2d6d415b85acef8100000000838161200257612001612dac565b5b0492506020810190505b662386f26fc10000831061203b57662386f26fc10000838161203157612030612dac565b5b0492506010810190505b6305f5e1008310612064576305f5e100838161205a57612059612dac565b5b0492506008810190505b612710831061208957612710838161207f5761207e612dac565b5b0492506004810190505b606483106120ac57606483816120a2576120a1612dac565b5b0492506002810190505b600a83106120bb576001810190505b80915050919050565b600073ffffffffffffffffffffffffffffffffffffffff168273ffffffffffffffffffffffffffffffffffffffff1603612133576040517f08c379a000000000000000000000000000000000000000000000000000000000815260040161212a906137c7565b60405180910390fd5b61213c8161187b565b1561217c576040517f08c379a000000000000000000000000000000000000000000000000000000000815260040161217390613833565b60405180910390fd5b61218a6000838360016118bc565b6121938161187b565b156121d3576040517f08c379a00000000000000000000000000000000000000000000000000000000081526004016121ca90613833565b60405180910390fd5b6001600360008473ffffffffffffffffffffffffffffffffffffffff1673ffffffffffffffffffffffffffffffffffffffff16815260200190815260200160002060008282540192505081905550816002600083815260200190815260200160002060006101000a81548173ffffffffffffffffffffffffffffffffffffffff021916908373ffffffffffffffffffffffffffffffffffffffff160217905550808273ffffffffffffffffffffffffffffffffffffffff16600073ffffffffffffffffffffffffffffffffffffffff167fddf252ad1be2c89b69c2b068fc378daa952ba7f163c4a11628f55a4df523b3ef60405160405180910390a46122dd6000838360016118c2565b5050565b5080546122ed90612b54565b6000825580601f106122ff575061231e565b601f01602090049060005260206000209081019061231d9190612321565b5b50565b5b8082111561233a576000816000905550600101612322565b5090565b6000604051905090565b600080fd5b600080fd5b60007fffffffff0000000000000000000000000000000000000000000000000000000082169050919050565b61238781612352565b811461239257600080fd5b50565b6000813590506123a48161237e565b92915050565b6000602082840312156123c0576123bf612348565b5b60006123ce84828501612395565b91505092915050565b60008115159050919050565b6123ec816123d7565b82525050565b600060208201905061240760008301846123e3565b92915050565b600081519050919050565b600082825260208201905092915050565b60005b8381101561244757808201518184015260208101905061242c565b60008484015250505050565b6000601f19601f8301169050919050565b600061246f8261240d565b6124798185612418565b9350612489818560208601612429565b61249281612453565b840191505092915050565b600060208201905081810360008301526124b78184612464565b905092915050565b6000819050919050565b6124d2816124bf565b81146124dd57600080fd5b50565b6000813590506124ef816124c9565b92915050565b60006020828403121561250b5761250a612348565b5b6000612519848285016124e0565b91505092915050565b600073ffffffffffffffffffffffffffffffffffffffff82169050919050565b600061254d82612522565b9050919050565b61255d81612542565b82525050565b60006020820190506125786000830184612554565b92915050565b61258781612542565b811461259257600080fd5b50565b6000813590506125a48161257e565b92915050565b600080604083850312156125c1576125c0612348565b5b60006125cf85828601612595565b92505060206125e0858286016124e0565b9150509250929050565b60008060006060848603121561260357612602612348565b5b600061261186828701612595565b935050602061262286828701612595565b9250506040612633868287016124e0565b9150509250925092565b6000806040838503121561265457612653612348565b5b6000612662858286016124e0565b9250506020612673858286016124e0565b9150509250929050565b612686816124bf565b82525050565b60006040820190506126a16000830185612554565b6126ae602083018461267d565b9392505050565b6000602082840312156126cb576126ca612348565b5b60006126d984828501612595565b91505092915050565b60006020820190506126f7600083018461267d565b92915050565b600080fd5b600080fd5b7f4e487b7100000000000000000000000000000000000000000000000000000000600052604160045260246000fd5b61273f82612453565b810181811067ffffffffffffffff8211171561275e5761275d612707565b5b80604052505050565b600061277161233e565b905061277d8282612736565b919050565b600067ffffffffffffffff82111561279d5761279c612707565b5b6127a682612453565b9050602081019050919050565b82818337600083830152505050565b60006127d56127d084612782565b612767565b9050828152602081018484840111156127f1576127f0612702565b5b6127fc8482856127b3565b509392505050565b600082601f830112612819576128186126fd565b5b81356128298482602086016127c2565b91505092915050565b60006bffffffffffffffffffffffff82169050919050565b61285381612832565b811461285e57600080fd5b50565b6000813590506128708161284a565b92915050565b600080600080608085870312156128905761288f612348565b5b600061289e87828801612595565b945050602085013567ffffffffffffffff8111156128bf576128be61234d565b5b6128cb87828801612804565b93505060406128dc87828801612595565b92505060606128ed87828801612861565b91505092959194509250565b612902816123d7565b811461290d57600080fd5b50565b60008135905061291f816128f9565b92915050565b6000806040838503121561293c5761293b612348565b5b600061294a85828601612595565b925050602061295b85828601612910565b9150509250929050565b600067ffffffffffffffff8211156129805761297f612707565b5b61298982612453565b9050602081019050919050565b60006129a96129a484612965565b612767565b9050828152602081018484840111156129c5576129c4612702565b5b6129d08482856127b3565b509392505050565b600082601f8301126129ed576129ec6126fd565b5b81356129fd848260208601612996565b91505092915050565b60008060008060808587031215612a2057612a1f612348565b5b6000612a2e87828801612595565b9450506020612a3f87828801612595565b9350506040612a50878288016124e0565b925050606085013567ffffffffffffffff811115612a7157612a7061234d565b5b612a7d878288016129d8565b91505092959194509250565b60008060408385031215612aa057612a9f612348565b5b6000612aae85828601612595565b9250506020612abf85828601612595565b9150509250929050565b60008060408385031215612ae057612adf612348565b5b6000612aee85828601612595565b925050602083013567ffffffffffffffff811115612b0f57612b0e61234d565b5b612b1b85828601612804565b9150509250929050565b7f4e487b7100000000000000000000000000000000000000000000000000000000600052602260045260246000fd5b60006002820490506001821680612b6c57607f821691505b602082108103612b7f57612b7e612b25565b5b50919050565b7f4552433732313a20617070726f76616c20746f2063757272656e74206f776e6560008201527f7200000000000000000000000000000000000000000000000000000000000000602082015250565b6000612be1602183612418565b9150612bec82612b85565b604082019050919050565b60006020820190508181036000830152612c1081612bd4565b9050919050565b7f4552433732313a20617070726f76652063616c6c6572206973206e6f7420746f60008201527f6b656e206f776e6572206f7220617070726f76656420666f7220616c6c000000602082015250565b6000612c73603d83612418565b9150612c7e82612c17565b604082019050919050565b60006020820190508181036000830152612ca281612c66565b9050919050565b7f4552433732313a2063616c6c6572206973206e6f7420746f6b656e206f776e6560008201527f72206f7220617070726f76656400000000000000000000000000000000000000602082015250565b6000612d05602d83612418565b9150612d1082612ca9565b604082019050919050565b60006020820190508181036000830152612d3481612cf8565b9050919050565b7f4e487b7100000000000000000000000000000000000000000000000000000000600052601160045260246000fd5b6000612d75826124bf565b9150612d80836124bf565b9250828202612d8e816124bf565b91508282048414831517612da557612da4612d3b565b5b5092915050565b7f4e487b7100000000000000000000000000000000000000000000000000000000600052601260045260246000fd5b6000612de6826124bf565b9150612df1836124bf565b925082612e0157612e00612dac565b5b828204905092915050565b7f4552433732313a20696e76616c696420746f6b656e2049440000000000000000600082015250565b6000612e42601883612418565b9150612e4d82612e0c565b602082019050919050565b60006020820190508181036000830152612e7181612e35565b9050919050565b7f4552433732313a2061646472657373207a65726f206973206e6f74206120766160008201527f6c6964206f776e65720000000000000000000000000000000000000000000000602082015250565b6000612ed4602983612418565b9150612edf82612e78565b604082019050919050565b60006020820190508181036000830152612f0381612ec7565b9050919050565b600081905092915050565b6000612f208261240d565b612f2a8185612f0a565b9350612f3a818560208601612429565b80840191505092915050565b6000612f528285612f15565b9150612f5e8284612f15565b91508190509392505050565b7f4f776e61626c653a206e6577206f776e657220697320746865207a65726f206160008201527f6464726573730000000000000000000000000000000000000000000000000000602082015250565b6000612fc6602683612418565b9150612fd182612f6a565b604082019050919050565b60006020820190508181036000830152612ff581612fb9565b9050919050565b7f4552433732313a207472616e736665722066726f6d20696e636f72726563742060008201527f6f776e6572000000000000000000000000000000000000000000000000000000602082015250565b6000613058602583612418565b915061306382612ffc565b604082019050919050565b600060208201905081810360008301526130878161304b565b9050919050565b7f4552433732313a207472616e7366657220746f20746865207a65726f2061646460008201527f7265737300000000000000000000000000000000000000000000000000000000602082015250565b60006130ea602483612418565b91506130f58261308e565b604082019050919050565b60006020820190508181036000830152613119816130dd565b9050919050565b7f4f776e61626c653a2063616c6c6572206973206e6f7420746865206f776e6572600082015250565b6000613156602083612418565b915061316182613120565b602082019050919050565b6000602082019050818103600083015261318581613149565b9050919050565b7f455243323938313a20726f79616c7479206665652077696c6c2065786365656460008201527f2073616c65507269636500000000000000000000000000000000000000000000602082015250565b60006131e8602a83612418565b91506131f38261318c565b604082019050919050565b60006020820190508181036000830152613217816131db565b9050919050565b7f455243323938313a20496e76616c696420706172616d65746572730000000000600082015250565b6000613254601b83612418565b915061325f8261321e565b602082019050919050565b6000602082019050818103600083015261328381613247565b9050919050565b7f4552433732313a207472616e7366657220746f206e6f6e20455243373231526560008201527f63656976657220696d706c656d656e7465720000000000000000000000000000602082015250565b60006132e6603283612418565b91506132f18261328a565b604082019050919050565b60006020820190508181036000830152613315816132d9565b9050919050565b7f45524337323155524953746f726167653a2055524920736574206f66206e6f6e60008201527f6578697374656e7420746f6b656e000000000000000000000000000000000000602082015250565b6000613378602e83612418565b91506133838261331c565b604082019050919050565b600060208201905081810360008301526133a78161336b565b9050919050565b60008190508160005260206000209050919050565b60006020601f8301049050919050565b600082821b905092915050565b6000600883026134107fffffffffffffffffffffffffffffffffffffffffffffffffffffffffffffffff826133d3565b61341a86836133d3565b95508019841693508086168417925050509392505050565b6000819050919050565b600061345761345261344d846124bf565b613432565b6124bf565b9050919050565b6000819050919050565b6134718361343c565b61348561347d8261345e565b8484546133e0565b825550505050565b600090565b61349a61348d565b6134a5818484613468565b505050565b5b818110156134c9576134be600082613492565b6001810190506134ab565b5050565b601f82111561350e576134df816133ae565b6134e8846133c3565b810160208510156134f7578190505b61350b613503856133c3565b8301826134aa565b50505b505050565b600082821c905092915050565b600061353160001984600802613513565b1980831691505092915050565b600061354a8383613520565b9150826002028217905092915050565b6135638261240d565b67ffffffffffffffff81111561357c5761357b612707565b5b6135868254612b54565b6135918282856134cd565b600060209050601f8311600181146135c457600084156135b2578287015190505b6135bc858261353e565b865550613624565b601f1984166135d2866133ae565b60005b828110156135fa578489015182556001820191506020850194506020810190506135d5565b868310156136175784890151613613601f891682613520565b8355505b6001600288020188555050505b505050505050565b7f4552433732313a20617070726f766520746f2063616c6c657200000000000000600082015250565b6000613662601983612418565b915061366d8261362c565b602082019050919050565b6000602082019050818103600083015261369181613655565b9050919050565b600081519050919050565b600082825260208201905092915050565b60006136bf82613698565b6136c981856136a3565b93506136d9818560208601612429565b6136e281612453565b840191505092915050565b60006080820190506137026000830187612554565b61370f6020830186612554565b61371c604083018561267d565b818103606083015261372e81846136b4565b905095945050505050565b6000815190506137488161237e565b92915050565b60006020828403121561376457613763612348565b5b600061377284828501613739565b91505092915050565b7f4552433732313a206d696e7420746f20746865207a65726f2061646472657373600082015250565b60006137b1602083612418565b91506137bc8261377b565b602082019050919050565b600060208201905081810360008301526137e0816137a4565b9050919050565b7f4552433732313a20746f6b656e20616c7265616479206d696e74656400000000600082015250565b600061381d601c83612418565b9150613828826137e7565b602082019050919050565b6000602082019050818103600083015261384c81613810565b905091905056fea264697066735822122078bb0ef54310df2c81518399cb06b2b2e810d8870ddfa19a2943d983890eca6964736f6c63430008130033",
  "immutableReferences": {},
  "source": "// SPDX-License-Identifier: MIT\npragma solidity ^0.8.0;\n\nimport \"@openzeppelin/contracts/token/ERC721/extensions/ERC721URIStorage.sol\";\nimport \"@openzeppelin/contracts/token/common/ERC2981.sol\";\nimport \"@openzeppelin/contracts/access/Ownable.sol\";\nimport \"@openzeppelin/contracts/utils/Counters.sol\";\n\ncontract RoyaltyNFT is ERC721URIStorage, ERC2981, Ownable {\n  using Counters for Counters.Counter;\n  Counters.Counter private _tokenIds;\n\n  constructor() ERC721(\"RoyaltyNFT\", \"RNFT\") {\n    _setDefaultRoyalty(msg.sender, 100);\n  }\n\n  function supportsInterface(bytes4 interfaceId)\n    public view virtual override(ERC721, ERC2981)\n    returns (bool) {\n      return super.supportsInterface(interfaceId);\n  }\n\n  function _burn(uint256 tokenId) internal virtual override {\n    super._burn(tokenId);\n    _resetTokenRoyalty(tokenId);\n  }\n\n  function burnNFT(uint256 tokenId)\n    public onlyOwner {\n      _burn(tokenId);\n  }\n\n  function mintNFT(address recipient, string memory tokenURI)\n    public onlyOwner\n    returns (uint256) {\n        _tokenIds.increment();\n\n        uint256 newItemId = _tokenIds.current();\n        _safeMint(recipient, newItemId);\n        _setTokenURI(newItemId, tokenURI);\n        // setApprovalForAll(recipient, true);\n\n        return newItemId;\n  }\n\n  function mintNFTWithRoyalty(address recipient, string memory tokenURI, address royaltyReceiver, uint96 feeNumerator)\n    public onlyOwner\n    returns (uint256) {\n        uint256 tokenId = mintNFT(recipient, tokenURI);\n        _setTokenRoyalty(tokenId, royaltyReceiver, feeNumerator);\n\n        return tokenId;\n  }\n  function setApprovalForAll(address operator, bool approved) public override {\n    super.setApprovalForAll(operator, approved);\n    }\n\n}",
  "sourcePath": "/Users/javiershen/Documents/GitHub/prueba-tecnica-sede/royalty/contracts/royaltyNFT.sol",
  "compiler": {
    "name": "solc",
    "version": "0.8.19+commit.7dd6d404.Emscripten.clang"
  },
  "schemaVersion": "3.4.13",
  "updatedAt": "2023-03-14T16:05:28.897Z",
  "networkType": "ethereum",
  "devdoc": {
    "events": {
      "Approval(address,address,uint256)": {
        "details": "Emitted when `owner` enables `approved` to manage the `tokenId` token."
      },
      "ApprovalForAll(address,address,bool)": {
        "details": "Emitted when `owner` enables or disables (`approved`) `operator` to manage all of its assets."
      },
      "Transfer(address,address,uint256)": {
        "details": "Emitted when `tokenId` token is transferred from `from` to `to`."
      }
    },
    "kind": "dev",
    "methods": {
      "approve(address,uint256)": {
        "details": "See {IERC721-approve}."
      },
      "balanceOf(address)": {
        "details": "See {IERC721-balanceOf}."
      },
      "getApproved(uint256)": {
        "details": "See {IERC721-getApproved}."
      },
      "isApprovedForAll(address,address)": {
        "details": "See {IERC721-isApprovedForAll}."
      },
      "name()": {
        "details": "See {IERC721Metadata-name}."
      },
      "owner()": {
        "details": "Returns the address of the current owner."
      },
      "ownerOf(uint256)": {
        "details": "See {IERC721-ownerOf}."
      },
      "renounceOwnership()": {
        "details": "Leaves the contract without owner. It will not be possible to call `onlyOwner` functions anymore. Can only be called by the current owner. NOTE: Renouncing ownership will leave the contract without an owner, thereby removing any functionality that is only available to the owner."
      },
      "royaltyInfo(uint256,uint256)": {
        "details": "Returns how much royalty is owed and to whom, based on a sale price that may be denominated in any unit of exchange. The royalty amount is denominated and should be paid in that same unit of exchange."
      },
      "safeTransferFrom(address,address,uint256)": {
        "details": "See {IERC721-safeTransferFrom}."
      },
      "safeTransferFrom(address,address,uint256,bytes)": {
        "details": "See {IERC721-safeTransferFrom}."
      },
      "setApprovalForAll(address,bool)": {
        "details": "See {IERC721-setApprovalForAll}."
      },
      "symbol()": {
        "details": "See {IERC721Metadata-symbol}."
      },
      "tokenURI(uint256)": {
        "details": "See {IERC721Metadata-tokenURI}."
      },
      "transferFrom(address,address,uint256)": {
        "details": "See {IERC721-transferFrom}."
      },
      "transferOwnership(address)": {
        "details": "Transfers ownership of the contract to a new account (`newOwner`). Can only be called by the current owner."
      }
    },
    "version": 1
  },
  "userdoc": {
    "kind": "user",
    "methods": {},
    "version": 1
  }
}