{
  "contractName": "MyNFTMarketplace",
  "abi": [
    {
      "inputs": [],
      "stateMutability": "nonpayable",
      "type": "constructor"
    },
    {
      "anonymous": false,
      "inputs": [
        {
          "indexed": true,
          "internalType": "address",
          "name": "account",
          "type": "address"
        },
        {
          "indexed": true,
          "internalType": "address",
          "name": "operator",
          "type": "address"
        },
        {
          "indexed": false,
          "internalType": "bool",
          "name": "approved",
          "type": "bool"
        }
      ],
      "name": "ApprovalForAll",
      "type": "event"
    },
    {
      "anonymous": false,
      "inputs": [
        {
          "indexed": true,
          "internalType": "address",
          "name": "previousOwner",
          "type": "address"
        },
        {
          "indexed": true,
          "internalType": "address",
          "name": "newOwner",
          "type": "address"
        }
      ],
      "name": "OwnershipTransferred",
      "type": "event"
    },
    {
      "anonymous": false,
      "inputs": [
        {
          "indexed": true,
          "internalType": "address",
          "name": "operator",
          "type": "address"
        },
        {
          "indexed": true,
          "internalType": "address",
          "name": "from",
          "type": "address"
        },
        {
          "indexed": true,
          "internalType": "address",
          "name": "to",
          "type": "address"
        },
        {
          "indexed": false,
          "internalType": "uint256[]",
          "name": "ids",
          "type": "uint256[]"
        },
        {
          "indexed": false,
          "internalType": "uint256[]",
          "name": "values",
          "type": "uint256[]"
        }
      ],
      "name": "TransferBatch",
      "type": "event"
    },
    {
      "anonymous": false,
      "inputs": [
        {
          "indexed": true,
          "internalType": "address",
          "name": "operator",
          "type": "address"
        },
        {
          "indexed": true,
          "internalType": "address",
          "name": "from",
          "type": "address"
        },
        {
          "indexed": true,
          "internalType": "address",
          "name": "to",
          "type": "address"
        },
        {
          "indexed": false,
          "internalType": "uint256",
          "name": "id",
          "type": "uint256"
        },
        {
          "indexed": false,
          "internalType": "uint256",
          "name": "value",
          "type": "uint256"
        }
      ],
      "name": "TransferSingle",
      "type": "event"
    },
    {
      "anonymous": false,
      "inputs": [
        {
          "indexed": false,
          "internalType": "string",
          "name": "value",
          "type": "string"
        },
        {
          "indexed": true,
          "internalType": "uint256",
          "name": "id",
          "type": "uint256"
        }
      ],
      "name": "URI",
      "type": "event"
    },
    {
      "inputs": [
        {
          "internalType": "uint256",
          "name": "",
          "type": "uint256"
        }
      ],
      "name": "_loyaltyPrograms",
      "outputs": [
        {
          "internalType": "uint256",
          "name": "threshold",
          "type": "uint256"
        },
        {
          "internalType": "uint256",
          "name": "loyaltyPercent",
          "type": "uint256"
        }
      ],
      "stateMutability": "view",
      "type": "function",
      "constant": true
    },
    {
      "inputs": [
        {
          "internalType": "uint256",
          "name": "",
          "type": "uint256"
        }
      ],
      "name": "_tokens",
      "outputs": [
        {
          "internalType": "uint256",
          "name": "tokenId",
          "type": "uint256"
        },
        {
          "internalType": "uint256",
          "name": "price",
          "type": "uint256"
        },
        {
          "internalType": "bool",
          "name": "forSale",
          "type": "bool"
        },
        {
          "internalType": "address payable",
          "name": "creator",
          "type": "address"
        }
      ],
      "stateMutability": "view",
      "type": "function",
      "constant": true
    },
    {
      "inputs": [
        {
          "internalType": "address",
          "name": "account",
          "type": "address"
        },
        {
          "internalType": "uint256",
          "name": "id",
          "type": "uint256"
        }
      ],
      "name": "balanceOf",
      "outputs": [
        {
          "internalType": "uint256",
          "name": "",
          "type": "uint256"
        }
      ],
      "stateMutability": "view",
      "type": "function",
      "constant": true
    },
    {
      "inputs": [
        {
          "internalType": "address[]",
          "name": "accounts",
          "type": "address[]"
        },
        {
          "internalType": "uint256[]",
          "name": "ids",
          "type": "uint256[]"
        }
      ],
      "name": "balanceOfBatch",
      "outputs": [
        {
          "internalType": "uint256[]",
          "name": "",
          "type": "uint256[]"
        }
      ],
      "stateMutability": "view",
      "type": "function",
      "constant": true
    },
    {
      "inputs": [
        {
          "internalType": "address",
          "name": "account",
          "type": "address"
        },
        {
          "internalType": "uint256",
          "name": "id",
          "type": "uint256"
        },
        {
          "internalType": "uint256",
          "name": "value",
          "type": "uint256"
        }
      ],
      "name": "burn",
      "outputs": [],
      "stateMutability": "nonpayable",
      "type": "function"
    },
    {
      "inputs": [
        {
          "internalType": "address",
          "name": "account",
          "type": "address"
        },
        {
          "internalType": "uint256[]",
          "name": "ids",
          "type": "uint256[]"
        },
        {
          "internalType": "uint256[]",
          "name": "values",
          "type": "uint256[]"
        }
      ],
      "name": "burnBatch",
      "outputs": [],
      "stateMutability": "nonpayable",
      "type": "function"
    },
    {
      "inputs": [
        {
          "internalType": "address",
          "name": "account",
          "type": "address"
        },
        {
          "internalType": "address",
          "name": "operator",
          "type": "address"
        }
      ],
      "name": "isApprovedForAll",
      "outputs": [
        {
          "internalType": "bool",
          "name": "",
          "type": "bool"
        }
      ],
      "stateMutability": "view",
      "type": "function",
      "constant": true
    },
    {
      "inputs": [],
      "name": "owner",
      "outputs": [
        {
          "internalType": "address",
          "name": "",
          "type": "address"
        }
      ],
      "stateMutability": "view",
      "type": "function",
      "constant": true
    },
    {
      "inputs": [],
      "name": "renounceOwnership",
      "outputs": [],
      "stateMutability": "nonpayable",
      "type": "function"
    },
    {
      "inputs": [
        {
          "internalType": "address",
          "name": "from",
          "type": "address"
        },
        {
          "internalType": "address",
          "name": "to",
          "type": "address"
        },
        {
          "internalType": "uint256[]",
          "name": "ids",
          "type": "uint256[]"
        },
        {
          "internalType": "uint256[]",
          "name": "amounts",
          "type": "uint256[]"
        },
        {
          "internalType": "bytes",
          "name": "data",
          "type": "bytes"
        }
      ],
      "name": "safeBatchTransferFrom",
      "outputs": [],
      "stateMutability": "nonpayable",
      "type": "function"
    },
    {
      "inputs": [
        {
          "internalType": "address",
          "name": "from",
          "type": "address"
        },
        {
          "internalType": "address",
          "name": "to",
          "type": "address"
        },
        {
          "internalType": "uint256",
          "name": "id",
          "type": "uint256"
        },
        {
          "internalType": "uint256",
          "name": "amount",
          "type": "uint256"
        },
        {
          "internalType": "bytes",
          "name": "data",
          "type": "bytes"
        }
      ],
      "name": "safeTransferFrom",
      "outputs": [],
      "stateMutability": "nonpayable",
      "type": "function"
    },
    {
      "inputs": [
        {
          "internalType": "address",
          "name": "operator",
          "type": "address"
        },
        {
          "internalType": "bool",
          "name": "approved",
          "type": "bool"
        }
      ],
      "name": "setApprovalForAll",
      "outputs": [],
      "stateMutability": "nonpayable",
      "type": "function"
    },
    {
      "inputs": [
        {
          "internalType": "bytes4",
          "name": "interfaceId",
          "type": "bytes4"
        }
      ],
      "name": "supportsInterface",
      "outputs": [
        {
          "internalType": "bool",
          "name": "",
          "type": "bool"
        }
      ],
      "stateMutability": "view",
      "type": "function",
      "constant": true
    },
    {
      "inputs": [
        {
          "internalType": "address",
          "name": "newOwner",
          "type": "address"
        }
      ],
      "name": "transferOwnership",
      "outputs": [],
      "stateMutability": "nonpayable",
      "type": "function"
    },
    {
      "inputs": [
        {
          "internalType": "uint256",
          "name": "",
          "type": "uint256"
        }
      ],
      "name": "uri",
      "outputs": [
        {
          "internalType": "string",
          "name": "",
          "type": "string"
        }
      ],
      "stateMutability": "view",
      "type": "function",
      "constant": true
    },
    {
      "inputs": [
        {
          "internalType": "address",
          "name": "to",
          "type": "address"
        },
        {
          "internalType": "uint256",
          "name": "tokenId",
          "type": "uint256"
        },
        {
          "internalType": "uint256",
          "name": "amount",
          "type": "uint256"
        },
        {
          "internalType": "string",
          "name": "uri",
          "type": "string"
        },
        {
          "internalType": "address payable",
          "name": "creator",
          "type": "address"
        }
      ],
      "name": "mint",
      "outputs": [],
      "stateMutability": "nonpayable",
      "type": "function"
    },
    {
      "inputs": [
        {
          "internalType": "address payable",
          "name": "seller",
          "type": "address"
        },
        {
          "internalType": "uint256",
          "name": "tokenId",
          "type": "uint256"
        }
      ],
      "name": "buy",
      "outputs": [],
      "stateMutability": "payable",
      "type": "function",
      "payable": true
    },
    {
      "inputs": [
        {
          "internalType": "uint256",
          "name": "tokenId",
          "type": "uint256"
        },
        {
          "internalType": "uint256",
          "name": "price",
          "type": "uint256"
        }
      ],
      "name": "sell",
      "outputs": [],
      "stateMutability": "nonpayable",
      "type": "function"
    },
    {
      "inputs": [
        {
          "internalType": "uint256",
          "name": "threshold",
          "type": "uint256"
        },
        {
          "internalType": "uint256",
          "name": "loyaltyPercent",
          "type": "uint256"
        }
      ],
      "name": "setLoyaltyProgram",
      "outputs": [],
      "stateMutability": "nonpayable",
      "type": "function"
    },
    {
      "inputs": [
        {
          "internalType": "uint256",
          "name": "threshold",
          "type": "uint256"
        }
      ],
      "name": "removeLoyaltyProgram",
      "outputs": [],
      "stateMutability": "nonpayable",
      "type": "function"
    },
    {
      "inputs": [
        {
          "internalType": "address[]",
          "name": "users",
          "type": "address[]"
        }
      ],
      "name": "addUsers",
      "outputs": [],
      "stateMutability": "nonpayable",
      "type": "function"
    },
    {
      "inputs": [
        {
          "internalType": "address[]",
          "name": "users",
          "type": "address[]"
        }
      ],
      "name": "removeUsers",
      "outputs": [],
      "stateMutability": "nonpayable",
      "type": "function"
    },
    {
      "inputs": [
        {
          "internalType": "address",
          "name": "user",
          "type": "address"
        }
      ],
      "name": "isUser",
      "outputs": [
        {
          "internalType": "bool",
          "name": "",
          "type": "bool"
        }
      ],
      "stateMutability": "view",
      "type": "function",
      "constant": true
    }
  ],
  "bytecode": "0x60806040523480156200001157600080fd5b50604051806060016040528060238152602001620049a7602391396200003d816200006460201b60201c565b506200005e620000526200007960201b60201c565b6200008160201b60201c565b620004a8565b8060029081620000759190620003c1565b5050565b600033905090565b6000600360009054906101000a900473ffffffffffffffffffffffffffffffffffffffff16905081600360006101000a81548173ffffffffffffffffffffffffffffffffffffffff021916908373ffffffffffffffffffffffffffffffffffffffff1602179055508173ffffffffffffffffffffffffffffffffffffffff168173ffffffffffffffffffffffffffffffffffffffff167f8be0079c531659141344cd1fd0a4f28419497f9722a3daafe3b4186f6b6457e060405160405180910390a35050565b600081519050919050565b7f4e487b7100000000000000000000000000000000000000000000000000000000600052604160045260246000fd5b7f4e487b7100000000000000000000000000000000000000000000000000000000600052602260045260246000fd5b60006002820490506001821680620001c957607f821691505b602082108103620001df57620001de62000181565b5b50919050565b60008190508160005260206000209050919050565b60006020601f8301049050919050565b600082821b905092915050565b600060088302620002497fffffffffffffffffffffffffffffffffffffffffffffffffffffffffffffffff826200020a565b6200025586836200020a565b95508019841693508086168417925050509392505050565b6000819050919050565b6000819050919050565b6000620002a26200029c62000296846200026d565b62000277565b6200026d565b9050919050565b6000819050919050565b620002be8362000281565b620002d6620002cd82620002a9565b84845462000217565b825550505050565b600090565b620002ed620002de565b620002fa818484620002b3565b505050565b5b81811015620003225762000316600082620002e3565b60018101905062000300565b5050565b601f82111562000371576200033b81620001e5565b6200034684620001fa565b8101602085101562000356578190505b6200036e6200036585620001fa565b830182620002ff565b50505b505050565b600082821c905092915050565b6000620003966000198460080262000376565b1980831691505092915050565b6000620003b1838362000383565b9150826002028217905092915050565b620003cc8262000147565b67ffffffffffffffff811115620003e857620003e762000152565b5b620003f48254620001b0565b6200040182828562000326565b600060209050601f83116001811462000439576000841562000424578287015190505b620004308582620003a3565b865550620004a0565b601f1984166200044986620001e5565b60005b8281101562000473578489015182556001820191506020850194506020810190506200044c565b868310156200049357848901516200048f601f89168262000383565b8355505b6001600288020188555050505b505050505050565b6144ef80620004b86000396000f3fe60806040526004361061013f5760003560e01c8063a22cb465116100b6578063e985e9c51161006f578063e985e9c514610459578063ed70554d14610496578063f242432a146104d6578063f2fde38b146104ff578063f5298aca14610528578063f5acc71d146105515761013f565b8063a22cb4651461035b578063bf4989fa14610384578063cce7ec13146103ad578063d79875eb146103c9578063e2ebe7bb146103f2578063e45c7a3e146104305761013f565b80634209fff1116101085780634209fff11461024d5780634e1273f41461028a5780636b20c454146102c7578063700c9474146102f0578063715018a6146103195780638da5cb5b146103305761013f565b8062fdd58e1461014457806301ffc9a7146101815780630e89341c146101be5780632be4a903146101fb5780632eb2c2d614610224575b600080fd5b34801561015057600080fd5b5061016b60048036038101906101669190612837565b61057a565b6040516101789190612886565b60405180910390f35b34801561018d57600080fd5b506101a860048036038101906101a391906128f9565b610642565b6040516101b59190612941565b60405180910390f35b3480156101ca57600080fd5b506101e560048036038101906101e0919061295c565b610724565b6040516101f29190612a19565b60405180910390f35b34801561020757600080fd5b50610222600480360381019061021d9190612b83565b6107b8565b005b34801561023057600080fd5b5061024b60048036038101906102469190612d44565b610855565b005b34801561025957600080fd5b50610274600480360381019061026f9190612e13565b6108f6565b6040516102819190612941565b60405180910390f35b34801561029657600080fd5b506102b160048036038101906102ac9190612e40565b61094c565b6040516102be9190612f76565b60405180910390f35b3480156102d357600080fd5b506102ee60048036038101906102e99190612f98565b610a65565b005b3480156102fc57600080fd5b5061031760048036038101906103129190612b83565b610b02565b005b34801561032557600080fd5b5061032e610b9f565b005b34801561033c57600080fd5b50610345610bb3565b6040516103529190613032565b60405180910390f35b34801561036757600080fd5b50610382600480360381019061037d9190613079565b610bdd565b005b34801561039057600080fd5b506103ab60048036038101906103a691906130b9565b610bf3565b005b6103c760048036038101906103c29190613137565b610c36565b005b3480156103d557600080fd5b506103f060048036038101906103eb91906130b9565b610e06565b005b3480156103fe57600080fd5b506104196004803603810190610414919061295c565b610ee7565b604051610427929190613177565b60405180910390f35b34801561043c57600080fd5b506104576004803603810190610452919061295c565b610f0b565b005b34801561046557600080fd5b50610480600480360381019061047b91906131a0565b610f34565b60405161048d9190612941565b60405180910390f35b3480156104a257600080fd5b506104bd60048036038101906104b8919061295c565b610fc8565b6040516104cd94939291906131ef565b60405180910390f35b3480156104e257600080fd5b506104fd60048036038101906104f89190613234565b611025565b005b34801561050b57600080fd5b5061052660048036038101906105219190612e13565b6110c6565b005b34801561053457600080fd5b5061054f600480360381019061054a91906132cb565b611149565b005b34801561055d57600080fd5b50610578600480360381019061057391906133bf565b6111e6565b005b60008073ffffffffffffffffffffffffffffffffffffffff168373ffffffffffffffffffffffffffffffffffffffff16036105ea576040517f08c379a00000000000000000000000000000000000000000000000000000000081526004016105e1906134c8565b60405180910390fd5b60008083815260200190815260200160002060008473ffffffffffffffffffffffffffffffffffffffff1673ffffffffffffffffffffffffffffffffffffffff16815260200190815260200160002054905092915050565b60007fd9b67a26000000000000000000000000000000000000000000000000000000007bffffffffffffffffffffffffffffffffffffffffffffffffffffffff1916827bffffffffffffffffffffffffffffffffffffffffffffffffffffffff1916148061070d57507f0e89341c000000000000000000000000000000000000000000000000000000007bffffffffffffffffffffffffffffffffffffffffffffffffffffffff1916827bffffffffffffffffffffffffffffffffffffffffffffffffffffffff1916145b8061071d575061071c826112e5565b5b9050919050565b60606002805461073390613517565b80601f016020809104026020016040519081016040528092919081815260200182805461075f90613517565b80156107ac5780601f10610781576101008083540402835291602001916107ac565b820191906000526020600020905b81548152906001019060200180831161078f57829003601f168201915b50505050509050919050565b6107c061134f565b60005b8151811015610851576000600560008484815181106107e5576107e4613548565b5b602002602001015173ffffffffffffffffffffffffffffffffffffffff1673ffffffffffffffffffffffffffffffffffffffff16815260200190815260200160002060006101000a81548160ff0219169083151502179055508080610849906135a6565b9150506107c3565b5050565b61085d6113cd565b73ffffffffffffffffffffffffffffffffffffffff168573ffffffffffffffffffffffffffffffffffffffff1614806108a357506108a28561089d6113cd565b610f34565b5b6108e2576040517f08c379a00000000000000000000000000000000000000000000000000000000081526004016108d990613660565b60405180910390fd5b6108ef85858585856113d5565b5050505050565b6000600560008373ffffffffffffffffffffffffffffffffffffffff1673ffffffffffffffffffffffffffffffffffffffff16815260200190815260200160002060009054906101000a900460ff169050919050565b60608151835114610992576040517f08c379a0000000000000000000000000000000000000000000000000000000008152600401610989906136f2565b60405180910390fd5b6000835167ffffffffffffffff8111156109af576109ae612a40565b5b6040519080825280602002602001820160405280156109dd5781602001602082028036833780820191505090505b50905060005b8451811015610a5a57610a2a858281518110610a0257610a01613548565b5b6020026020010151858381518110610a1d57610a1c613548565b5b602002602001015161057a565b828281518110610a3d57610a3c613548565b5b60200260200101818152505080610a53906135a6565b90506109e3565b508091505092915050565b610a6d6113cd565b73ffffffffffffffffffffffffffffffffffffffff168373ffffffffffffffffffffffffffffffffffffffff161480610ab35750610ab283610aad6113cd565b610f34565b5b610af2576040517f08c379a0000000000000000000000000000000000000000000000000000000008152600401610ae990613660565b60405180910390fd5b610afd8383836116f6565b505050565b610b0a61134f565b60005b8151811015610b9b57600160056000848481518110610b2f57610b2e613548565b5b602002602001015173ffffffffffffffffffffffffffffffffffffffff1673ffffffffffffffffffffffffffffffffffffffff16815260200190815260200160002060006101000a81548160ff0219169083151502179055508080610b93906135a6565b915050610b0d565b5050565b610ba761134f565b610bb160006119c4565b565b6000600360009054906101000a900473ffffffffffffffffffffffffffffffffffffffff16905090565b610bef610be86113cd565b8383611a8a565b5050565b6040518060400160405280838152602001828152506006600084815260200190815260200160002060008201518160000155602082015181600101559050505050565b60006004600083815260200190815260200160002090508060020160009054906101000a900460ff16610c9e576040517f08c379a0000000000000000000000000000000000000000000000000000000008152600401610c959061375e565b60405180910390fd5b80600101543414610ce4576040517f08c379a0000000000000000000000000000000000000000000000000000000008152600401610cdb906137ca565b60405180910390fd5b60008160020160019054906101000a900473ffffffffffffffffffffffffffffffffffffffff1690506000610d1a348386611bf6565b9050610d39853386600160405180602001604052806000815250611c90565b60008360020160006101000a81548160ff0219169083151502179055506000836001018190555060008134610d6e91906137ea565b90508573ffffffffffffffffffffffffffffffffffffffff166108fc829081150290604051600060405180830381858888f19350505050158015610db6573d6000803e3d6000fd5b508273ffffffffffffffffffffffffffffffffffffffff166108fc839081150290604051600060405180830381858888f19350505050158015610dfd573d6000803e3d6000fd5b50505050505050565b60006004600084815260200190815260200160002090506000816000015403610e64576040517f08c379a0000000000000000000000000000000000000000000000000000000008152600401610e5b9061386a565b60405180910390fd5b6001610e70338561057a565b1015610eb1576040517f08c379a0000000000000000000000000000000000000000000000000000000008152600401610ea8906138d6565b60405180910390fd5b60018160020160006101000a81548160ff021916908315150217905550818160010181905550610ee2306001610bdd565b505050565b60066020528060005260406000206000915090508060000154908060010154905082565b600660008281526020019081526020016000206000808201600090556001820160009055505050565b6000600160008473ffffffffffffffffffffffffffffffffffffffff1673ffffffffffffffffffffffffffffffffffffffff16815260200190815260200160002060008373ffffffffffffffffffffffffffffffffffffffff1673ffffffffffffffffffffffffffffffffffffffff16815260200190815260200160002060009054906101000a900460ff16905092915050565b60046020528060005260406000206000915090508060000154908060010154908060020160009054906101000a900460ff16908060020160019054906101000a900473ffffffffffffffffffffffffffffffffffffffff16905084565b61102d6113cd565b73ffffffffffffffffffffffffffffffffffffffff168573ffffffffffffffffffffffffffffffffffffffff16148061107357506110728561106d6113cd565b610f34565b5b6110b2576040517f08c379a00000000000000000000000000000000000000000000000000000000081526004016110a990613660565b60405180910390fd5b6110bf8585858585611c90565b5050505050565b6110ce61134f565b600073ffffffffffffffffffffffffffffffffffffffff168173ffffffffffffffffffffffffffffffffffffffff160361113d576040517f08c379a000000000000000000000000000000000000000000000000000000000815260040161113490613968565b60405180910390fd5b611146816119c4565b50565b6111516113cd565b73ffffffffffffffffffffffffffffffffffffffff168373ffffffffffffffffffffffffffffffffffffffff1614806111975750611196836111916113cd565b610f34565b5b6111d6576040517f08c379a00000000000000000000000000000000000000000000000000000000081526004016111cd90613660565b60405180910390fd5b6111e1838383611f2b565b505050565b6111ee61134f565b61120985858560405180602001604052806000815250612171565b6040518060800160405280858152602001600081526020016000151581526020018273ffffffffffffffffffffffffffffffffffffffff1681525060046000868152602001908152602001600020600082015181600001556020820151816001015560408201518160020160006101000a81548160ff02191690831515021790555060608201518160020160016101000a81548173ffffffffffffffffffffffffffffffffffffffff021916908373ffffffffffffffffffffffffffffffffffffffff1602179055509050506112de82612321565b5050505050565b60007f01ffc9a7000000000000000000000000000000000000000000000000000000007bffffffffffffffffffffffffffffffffffffffffffffffffffffffff1916827bffffffffffffffffffffffffffffffffffffffffffffffffffffffff1916149050919050565b6113576113cd565b73ffffffffffffffffffffffffffffffffffffffff16611375610bb3565b73ffffffffffffffffffffffffffffffffffffffff16146113cb576040517f08c379a00000000000000000000000000000000000000000000000000000000081526004016113c2906139d4565b60405180910390fd5b565b600033905090565b8151835114611419576040517f08c379a000000000000000000000000000000000000000000000000000000000815260040161141090613a66565b60405180910390fd5b600073ffffffffffffffffffffffffffffffffffffffff168473ffffffffffffffffffffffffffffffffffffffff1603611488576040517f08c379a000000000000000000000000000000000000000000000000000000000815260040161147f90613af8565b60405180910390fd5b60006114926113cd565b90506114a2818787878787612334565b60005b84518110156116535760008582815181106114c3576114c2613548565b5b6020026020010151905060008583815181106114e2576114e1613548565b5b60200260200101519050600080600084815260200190815260200160002060008b73ffffffffffffffffffffffffffffffffffffffff1673ffffffffffffffffffffffffffffffffffffffff16815260200190815260200160002054905081811015611583576040517f08c379a000000000000000000000000000000000000000000000000000000000815260040161157a90613b8a565b60405180910390fd5b81810360008085815260200190815260200160002060008c73ffffffffffffffffffffffffffffffffffffffff1673ffffffffffffffffffffffffffffffffffffffff168152602001908152602001600020819055508160008085815260200190815260200160002060008b73ffffffffffffffffffffffffffffffffffffffff1673ffffffffffffffffffffffffffffffffffffffff16815260200190815260200160002060008282546116389190613baa565b925050819055505050508061164c906135a6565b90506114a5565b508473ffffffffffffffffffffffffffffffffffffffff168673ffffffffffffffffffffffffffffffffffffffff168273ffffffffffffffffffffffffffffffffffffffff167f4a39dc06d4c0dbc64b70af90fd698a233a518aa5d07e595d983b8c0526c8f7fb87876040516116ca929190613bde565b60405180910390a46116e081878787878761233c565b6116ee818787878787612344565b505050505050565b600073ffffffffffffffffffffffffffffffffffffffff168373ffffffffffffffffffffffffffffffffffffffff1603611765576040517f08c379a000000000000000000000000000000000000000000000000000000000815260040161175c90613c87565b60405180910390fd5b80518251146117a9576040517f08c379a00000000000000000000000000000000000000000000000000000000081526004016117a090613a66565b60405180910390fd5b60006117b36113cd565b90506117d381856000868660405180602001604052806000815250612334565b60005b83518110156119205760008482815181106117f4576117f3613548565b5b60200260200101519050600084838151811061181357611812613548565b5b60200260200101519050600080600084815260200190815260200160002060008973ffffffffffffffffffffffffffffffffffffffff1673ffffffffffffffffffffffffffffffffffffffff168152602001908152602001600020549050818110156118b4576040517f08c379a00000000000000000000000000000000000000000000000000000000081526004016118ab90613d19565b60405180910390fd5b81810360008085815260200190815260200160002060008a73ffffffffffffffffffffffffffffffffffffffff1673ffffffffffffffffffffffffffffffffffffffff168152602001908152602001600020819055505050508080611918906135a6565b9150506117d6565b50600073ffffffffffffffffffffffffffffffffffffffff168473ffffffffffffffffffffffffffffffffffffffff168273ffffffffffffffffffffffffffffffffffffffff167f4a39dc06d4c0dbc64b70af90fd698a233a518aa5d07e595d983b8c0526c8f7fb8686604051611998929190613bde565b60405180910390a46119be8185600086866040518060200160405280600081525061233c565b50505050565b6000600360009054906101000a900473ffffffffffffffffffffffffffffffffffffffff16905081600360006101000a81548173ffffffffffffffffffffffffffffffffffffffff021916908373ffffffffffffffffffffffffffffffffffffffff1602179055508173ffffffffffffffffffffffffffffffffffffffff168173ffffffffffffffffffffffffffffffffffffffff167f8be0079c531659141344cd1fd0a4f28419497f9722a3daafe3b4186f6b6457e060405160405180910390a35050565b8173ffffffffffffffffffffffffffffffffffffffff168373ffffffffffffffffffffffffffffffffffffffff1603611af8576040517f08c379a0000000000000000000000000000000000000000000000000000000008152600401611aef90613dab565b60405180910390fd5b80600160008573ffffffffffffffffffffffffffffffffffffffff1673ffffffffffffffffffffffffffffffffffffffff16815260200190815260200160002060008473ffffffffffffffffffffffffffffffffffffffff1673ffffffffffffffffffffffffffffffffffffffff16815260200190815260200160002060006101000a81548160ff0219169083151502179055508173ffffffffffffffffffffffffffffffffffffffff168373ffffffffffffffffffffffffffffffffffffffff167f17307eab39ab6107e8899845ad3d59bd9653f200f220920489ca2b5937696c3183604051611be99190612941565b60405180910390a3505050565b60008060066000848152602001908152602001600020604051806040016040529081600082015481526020016001820154815250509050600081600001511480611c465750611c44846108f6565b155b80611c545750806000015185105b15611c63576000915050611c89565b60006064826020015187611c779190613dcb565b611c819190613e3c565b905080925050505b9392505050565b600073ffffffffffffffffffffffffffffffffffffffff168473ffffffffffffffffffffffffffffffffffffffff1603611cff576040517f08c379a0000000000000000000000000000000000000000000000000000000008152600401611cf690613af8565b60405180910390fd5b6000611d096113cd565b90506000611d168561251b565b90506000611d238561251b565b9050611d33838989858589612334565b600080600088815260200190815260200160002060008a73ffffffffffffffffffffffffffffffffffffffff1673ffffffffffffffffffffffffffffffffffffffff16815260200190815260200160002054905085811015611dca576040517f08c379a0000000000000000000000000000000000000000000000000000000008152600401611dc190613b8a565b60405180910390fd5b85810360008089815260200190815260200160002060008b73ffffffffffffffffffffffffffffffffffffffff1673ffffffffffffffffffffffffffffffffffffffff168152602001908152602001600020819055508560008089815260200190815260200160002060008a73ffffffffffffffffffffffffffffffffffffffff1673ffffffffffffffffffffffffffffffffffffffff1681526020019081526020016000206000828254611e7f9190613baa565b925050819055508773ffffffffffffffffffffffffffffffffffffffff168973ffffffffffffffffffffffffffffffffffffffff168573ffffffffffffffffffffffffffffffffffffffff167fc3d58168c5ae7397731d063d5bbf3d657854427343f4c083240f7aacaa2d0f628a8a604051611efc929190613177565b60405180910390a4611f12848a8a86868a61233c565b611f20848a8a8a8a8a612595565b505050505050505050565b600073ffffffffffffffffffffffffffffffffffffffff168373ffffffffffffffffffffffffffffffffffffffff1603611f9a576040517f08c379a0000000000000000000000000000000000000000000000000000000008152600401611f9190613c87565b60405180910390fd5b6000611fa46113cd565b90506000611fb18461251b565b90506000611fbe8461251b565b9050611fde83876000858560405180602001604052806000815250612334565b600080600087815260200190815260200160002060008873ffffffffffffffffffffffffffffffffffffffff1673ffffffffffffffffffffffffffffffffffffffff16815260200190815260200160002054905084811015612075576040517f08c379a000000000000000000000000000000000000000000000000000000000815260040161206c90613d19565b60405180910390fd5b84810360008088815260200190815260200160002060008973ffffffffffffffffffffffffffffffffffffffff1673ffffffffffffffffffffffffffffffffffffffff16815260200190815260200160002081905550600073ffffffffffffffffffffffffffffffffffffffff168773ffffffffffffffffffffffffffffffffffffffff168573ffffffffffffffffffffffffffffffffffffffff167fc3d58168c5ae7397731d063d5bbf3d657854427343f4c083240f7aacaa2d0f628989604051612142929190613177565b60405180910390a46121688488600086866040518060200160405280600081525061233c565b50505050505050565b600073ffffffffffffffffffffffffffffffffffffffff168473ffffffffffffffffffffffffffffffffffffffff16036121e0576040517f08c379a00000000000000000000000000000000000000000000000000000000081526004016121d790613edf565b60405180910390fd5b60006121ea6113cd565b905060006121f78561251b565b905060006122048561251b565b905061221583600089858589612334565b8460008088815260200190815260200160002060008973ffffffffffffffffffffffffffffffffffffffff1673ffffffffffffffffffffffffffffffffffffffff16815260200190815260200160002060008282546122749190613baa565b925050819055508673ffffffffffffffffffffffffffffffffffffffff16600073ffffffffffffffffffffffffffffffffffffffff168473ffffffffffffffffffffffffffffffffffffffff167fc3d58168c5ae7397731d063d5bbf3d657854427343f4c083240f7aacaa2d0f6289896040516122f2929190613177565b60405180910390a46123098360008985858961233c565b61231883600089898989612595565b50505050505050565b806002908161233091906140ab565b5050565b505050505050565b505050505050565b6123638473ffffffffffffffffffffffffffffffffffffffff1661276c565b15612513578373ffffffffffffffffffffffffffffffffffffffff1663bc197c8187878686866040518663ffffffff1660e01b81526004016123a99594939291906141d2565b6020604051808303816000875af19250505080156123e557506040513d601f19601f820116820180604052508101906123e2919061424f565b60015b61248a576123f1614289565b806308c379a00361244d57506124056142ab565b80612410575061244f565b806040517f08c379a00000000000000000000000000000000000000000000000000000000081526004016124449190612a19565b60405180910390fd5b505b6040517f08c379a0000000000000000000000000000000000000000000000000000000008152600401612481906143ad565b60405180910390fd5b63bc197c8160e01b7bffffffffffffffffffffffffffffffffffffffffffffffffffffffff1916817bffffffffffffffffffffffffffffffffffffffffffffffffffffffff191614612511576040517f08c379a00000000000000000000000000000000000000000000000000000000081526004016125089061443f565b60405180910390fd5b505b505050505050565b60606000600167ffffffffffffffff81111561253a57612539612a40565b5b6040519080825280602002602001820160405280156125685781602001602082028036833780820191505090505b50905082816000815181106125805761257f613548565b5b60200260200101818152505080915050919050565b6125b48473ffffffffffffffffffffffffffffffffffffffff1661276c565b15612764578373ffffffffffffffffffffffffffffffffffffffff1663f23a6e6187878686866040518663ffffffff1660e01b81526004016125fa95949392919061445f565b6020604051808303816000875af192505050801561263657506040513d601f19601f82011682018060405250810190612633919061424f565b60015b6126db57612642614289565b806308c379a00361269e57506126566142ab565b8061266157506126a0565b806040517f08c379a00000000000000000000000000000000000000000000000000000000081526004016126959190612a19565b60405180910390fd5b505b6040517f08c379a00000000000000000000000000000000000000000000000000000000081526004016126d2906143ad565b60405180910390fd5b63f23a6e6160e01b7bffffffffffffffffffffffffffffffffffffffffffffffffffffffff1916817bffffffffffffffffffffffffffffffffffffffffffffffffffffffff191614612762576040517f08c379a00000000000000000000000000000000000000000000000000000000081526004016127599061443f565b60405180910390fd5b505b505050505050565b6000808273ffffffffffffffffffffffffffffffffffffffff163b119050919050565b6000604051905090565b600080fd5b600080fd5b600073ffffffffffffffffffffffffffffffffffffffff82169050919050565b60006127ce826127a3565b9050919050565b6127de816127c3565b81146127e957600080fd5b50565b6000813590506127fb816127d5565b92915050565b6000819050919050565b61281481612801565b811461281f57600080fd5b50565b6000813590506128318161280b565b92915050565b6000806040838503121561284e5761284d612799565b5b600061285c858286016127ec565b925050602061286d85828601612822565b9150509250929050565b61288081612801565b82525050565b600060208201905061289b6000830184612877565b92915050565b60007fffffffff0000000000000000000000000000000000000000000000000000000082169050919050565b6128d6816128a1565b81146128e157600080fd5b50565b6000813590506128f3816128cd565b92915050565b60006020828403121561290f5761290e612799565b5b600061291d848285016128e4565b91505092915050565b60008115159050919050565b61293b81612926565b82525050565b60006020820190506129566000830184612932565b92915050565b60006020828403121561297257612971612799565b5b600061298084828501612822565b91505092915050565b600081519050919050565b600082825260208201905092915050565b60005b838110156129c35780820151818401526020810190506129a8565b60008484015250505050565b6000601f19601f8301169050919050565b60006129eb82612989565b6129f58185612994565b9350612a058185602086016129a5565b612a0e816129cf565b840191505092915050565b60006020820190508181036000830152612a3381846129e0565b905092915050565b600080fd5b7f4e487b7100000000000000000000000000000000000000000000000000000000600052604160045260246000fd5b612a78826129cf565b810181811067ffffffffffffffff82111715612a9757612a96612a40565b5b80604052505050565b6000612aaa61278f565b9050612ab68282612a6f565b919050565b600067ffffffffffffffff821115612ad657612ad5612a40565b5b602082029050602081019050919050565b600080fd5b6000612aff612afa84612abb565b612aa0565b90508083825260208201905060208402830185811115612b2257612b21612ae7565b5b835b81811015612b4b5780612b3788826127ec565b845260208401935050602081019050612b24565b5050509392505050565b600082601f830112612b6a57612b69612a3b565b5b8135612b7a848260208601612aec565b91505092915050565b600060208284031215612b9957612b98612799565b5b600082013567ffffffffffffffff811115612bb757612bb661279e565b5b612bc384828501612b55565b91505092915050565b600067ffffffffffffffff821115612be757612be6612a40565b5b602082029050602081019050919050565b6000612c0b612c0684612bcc565b612aa0565b90508083825260208201905060208402830185811115612c2e57612c2d612ae7565b5b835b81811015612c575780612c438882612822565b845260208401935050602081019050612c30565b5050509392505050565b600082601f830112612c7657612c75612a3b565b5b8135612c86848260208601612bf8565b91505092915050565b600080fd5b600067ffffffffffffffff821115612caf57612cae612a40565b5b612cb8826129cf565b9050602081019050919050565b82818337600083830152505050565b6000612ce7612ce284612c94565b612aa0565b905082815260208101848484011115612d0357612d02612c8f565b5b612d0e848285612cc5565b509392505050565b600082601f830112612d2b57612d2a612a3b565b5b8135612d3b848260208601612cd4565b91505092915050565b600080600080600060a08688031215612d6057612d5f612799565b5b6000612d6e888289016127ec565b9550506020612d7f888289016127ec565b945050604086013567ffffffffffffffff811115612da057612d9f61279e565b5b612dac88828901612c61565b935050606086013567ffffffffffffffff811115612dcd57612dcc61279e565b5b612dd988828901612c61565b925050608086013567ffffffffffffffff811115612dfa57612df961279e565b5b612e0688828901612d16565b9150509295509295909350565b600060208284031215612e2957612e28612799565b5b6000612e37848285016127ec565b91505092915050565b60008060408385031215612e5757612e56612799565b5b600083013567ffffffffffffffff811115612e7557612e7461279e565b5b612e8185828601612b55565b925050602083013567ffffffffffffffff811115612ea257612ea161279e565b5b612eae85828601612c61565b9150509250929050565b600081519050919050565b600082825260208201905092915050565b6000819050602082019050919050565b612eed81612801565b82525050565b6000612eff8383612ee4565b60208301905092915050565b6000602082019050919050565b6000612f2382612eb8565b612f2d8185612ec3565b9350612f3883612ed4565b8060005b83811015612f69578151612f508882612ef3565b9750612f5b83612f0b565b925050600181019050612f3c565b5085935050505092915050565b60006020820190508181036000830152612f908184612f18565b905092915050565b600080600060608486031215612fb157612fb0612799565b5b6000612fbf868287016127ec565b935050602084013567ffffffffffffffff811115612fe057612fdf61279e565b5b612fec86828701612c61565b925050604084013567ffffffffffffffff81111561300d5761300c61279e565b5b61301986828701612c61565b9150509250925092565b61302c816127c3565b82525050565b60006020820190506130476000830184613023565b92915050565b61305681612926565b811461306157600080fd5b50565b6000813590506130738161304d565b92915050565b600080604083850312156130905761308f612799565b5b600061309e858286016127ec565b92505060206130af85828601613064565b9150509250929050565b600080604083850312156130d0576130cf612799565b5b60006130de85828601612822565b92505060206130ef85828601612822565b9150509250929050565b6000613104826127a3565b9050919050565b613114816130f9565b811461311f57600080fd5b50565b6000813590506131318161310b565b92915050565b6000806040838503121561314e5761314d612799565b5b600061315c85828601613122565b925050602061316d85828601612822565b9150509250929050565b600060408201905061318c6000830185612877565b6131996020830184612877565b9392505050565b600080604083850312156131b7576131b6612799565b5b60006131c5858286016127ec565b92505060206131d6858286016127ec565b9150509250929050565b6131e9816130f9565b82525050565b60006080820190506132046000830187612877565b6132116020830186612877565b61321e6040830185612932565b61322b60608301846131e0565b95945050505050565b600080600080600060a086880312156132505761324f612799565b5b600061325e888289016127ec565b955050602061326f888289016127ec565b945050604061328088828901612822565b935050606061329188828901612822565b925050608086013567ffffffffffffffff8111156132b2576132b161279e565b5b6132be88828901612d16565b9150509295509295909350565b6000806000606084860312156132e4576132e3612799565b5b60006132f2868287016127ec565b935050602061330386828701612822565b925050604061331486828701612822565b9150509250925092565b600067ffffffffffffffff82111561333957613338612a40565b5b613342826129cf565b9050602081019050919050565b600061336261335d8461331e565b612aa0565b90508281526020810184848401111561337e5761337d612c8f565b5b613389848285612cc5565b509392505050565b600082601f8301126133a6576133a5612a3b565b5b81356133b684826020860161334f565b91505092915050565b600080600080600060a086880312156133db576133da612799565b5b60006133e9888289016127ec565b95505060206133fa88828901612822565b945050604061340b88828901612822565b935050606086013567ffffffffffffffff81111561342c5761342b61279e565b5b61343888828901613391565b925050608061344988828901613122565b9150509295509295909350565b7f455243313135353a2061646472657373207a65726f206973206e6f742061207660008201527f616c6964206f776e657200000000000000000000000000000000000000000000602082015250565b60006134b2602a83612994565b91506134bd82613456565b604082019050919050565b600060208201905081810360008301526134e1816134a5565b9050919050565b7f4e487b7100000000000000000000000000000000000000000000000000000000600052602260045260246000fd5b6000600282049050600182168061352f57607f821691505b602082108103613542576135416134e8565b5b50919050565b7f4e487b7100000000000000000000000000000000000000000000000000000000600052603260045260246000fd5b7f4e487b7100000000000000000000000000000000000000000000000000000000600052601160045260246000fd5b60006135b182612801565b91507fffffffffffffffffffffffffffffffffffffffffffffffffffffffffffffffff82036135e3576135e2613577565b5b600182019050919050565b7f455243313135353a2063616c6c6572206973206e6f7420746f6b656e206f776e60008201527f6572206f7220617070726f766564000000000000000000000000000000000000602082015250565b600061364a602e83612994565b9150613655826135ee565b604082019050919050565b600060208201905081810360008301526136798161363d565b9050919050565b7f455243313135353a206163636f756e747320616e6420696473206c656e67746860008201527f206d69736d617463680000000000000000000000000000000000000000000000602082015250565b60006136dc602983612994565b91506136e782613680565b604082019050919050565b6000602082019050818103600083015261370b816136cf565b9050919050565b7f546f6b656e206973206e6f7420666f722073616c650000000000000000000000600082015250565b6000613748601583612994565b915061375382613712565b602082019050919050565b600060208201905081810360008301526137778161373b565b9050919050565b7f496e636f7272656374207061796d656e7420616d6f756e740000000000000000600082015250565b60006137b4601883612994565b91506137bf8261377e565b602082019050919050565b600060208201905081810360008301526137e3816137a7565b9050919050565b60006137f582612801565b915061380083612801565b925082820390508181111561381857613817613577565b5b92915050565b7f546f6b656e20646f6573206e6f74206578697374000000000000000000000000600082015250565b6000613854601483612994565b915061385f8261381e565b602082019050919050565b6000602082019050818103600083015261388381613847565b9050919050565b7f596f7520646f206e6f74206f776e207468697320746f6b656e00000000000000600082015250565b60006138c0601983612994565b91506138cb8261388a565b602082019050919050565b600060208201905081810360008301526138ef816138b3565b9050919050565b7f4f776e61626c653a206e6577206f776e657220697320746865207a65726f206160008201527f6464726573730000000000000000000000000000000000000000000000000000602082015250565b6000613952602683612994565b915061395d826138f6565b604082019050919050565b6000602082019050818103600083015261398181613945565b9050919050565b7f4f776e61626c653a2063616c6c6572206973206e6f7420746865206f776e6572600082015250565b60006139be602083612994565b91506139c982613988565b602082019050919050565b600060208201905081810360008301526139ed816139b1565b9050919050565b7f455243313135353a2069647320616e6420616d6f756e7473206c656e6774682060008201527f6d69736d61746368000000000000000000000000000000000000000000000000602082015250565b6000613a50602883612994565b9150613a5b826139f4565b604082019050919050565b60006020820190508181036000830152613a7f81613a43565b9050919050565b7f455243313135353a207472616e7366657220746f20746865207a65726f20616460008201527f6472657373000000000000000000000000000000000000000000000000000000602082015250565b6000613ae2602583612994565b9150613aed82613a86565b604082019050919050565b60006020820190508181036000830152613b1181613ad5565b9050919050565b7f455243313135353a20696e73756666696369656e742062616c616e636520666f60008201527f72207472616e7366657200000000000000000000000000000000000000000000602082015250565b6000613b74602a83612994565b9150613b7f82613b18565b604082019050919050565b60006020820190508181036000830152613ba381613b67565b9050919050565b6000613bb582612801565b9150613bc083612801565b9250828201905080821115613bd857613bd7613577565b5b92915050565b60006040820190508181036000830152613bf88185612f18565b90508181036020830152613c0c8184612f18565b90509392505050565b7f455243313135353a206275726e2066726f6d20746865207a65726f206164647260008201527f6573730000000000000000000000000000000000000000000000000000000000602082015250565b6000613c71602383612994565b9150613c7c82613c15565b604082019050919050565b60006020820190508181036000830152613ca081613c64565b9050919050565b7f455243313135353a206275726e20616d6f756e7420657863656564732062616c60008201527f616e636500000000000000000000000000000000000000000000000000000000602082015250565b6000613d03602483612994565b9150613d0e82613ca7565b604082019050919050565b60006020820190508181036000830152613d3281613cf6565b9050919050565b7f455243313135353a2073657474696e6720617070726f76616c2073746174757360008201527f20666f722073656c660000000000000000000000000000000000000000000000602082015250565b6000613d95602983612994565b9150613da082613d39565b604082019050919050565b60006020820190508181036000830152613dc481613d88565b9050919050565b6000613dd682612801565b9150613de183612801565b9250828202613def81612801565b91508282048414831517613e0657613e05613577565b5b5092915050565b7f4e487b7100000000000000000000000000000000000000000000000000000000600052601260045260246000fd5b6000613e4782612801565b9150613e5283612801565b925082613e6257613e61613e0d565b5b828204905092915050565b7f455243313135353a206d696e7420746f20746865207a65726f2061646472657360008201527f7300000000000000000000000000000000000000000000000000000000000000602082015250565b6000613ec9602183612994565b9150613ed482613e6d565b604082019050919050565b60006020820190508181036000830152613ef881613ebc565b9050919050565b60008190508160005260206000209050919050565b60006020601f8301049050919050565b600082821b905092915050565b600060088302613f617fffffffffffffffffffffffffffffffffffffffffffffffffffffffffffffffff82613f24565b613f6b8683613f24565b95508019841693508086168417925050509392505050565b6000819050919050565b6000613fa8613fa3613f9e84612801565b613f83565b612801565b9050919050565b6000819050919050565b613fc283613f8d565b613fd6613fce82613faf565b848454613f31565b825550505050565b600090565b613feb613fde565b613ff6818484613fb9565b505050565b5b8181101561401a5761400f600082613fe3565b600181019050613ffc565b5050565b601f82111561405f5761403081613eff565b61403984613f14565b81016020851015614048578190505b61405c61405485613f14565b830182613ffb565b50505b505050565b600082821c905092915050565b600061408260001984600802614064565b1980831691505092915050565b600061409b8383614071565b9150826002028217905092915050565b6140b482612989565b67ffffffffffffffff8111156140cd576140cc612a40565b5b6140d78254613517565b6140e282828561401e565b600060209050601f8311600181146141155760008415614103578287015190505b61410d858261408f565b865550614175565b601f19841661412386613eff565b60005b8281101561414b57848901518255600182019150602085019450602081019050614126565b868310156141685784890151614164601f891682614071565b8355505b6001600288020188555050505b505050505050565b600081519050919050565b600082825260208201905092915050565b60006141a48261417d565b6141ae8185614188565b93506141be8185602086016129a5565b6141c7816129cf565b840191505092915050565b600060a0820190506141e76000830188613023565b6141f46020830187613023565b81810360408301526142068186612f18565b9050818103606083015261421a8185612f18565b9050818103608083015261422e8184614199565b90509695505050505050565b600081519050614249816128cd565b92915050565b60006020828403121561426557614264612799565b5b60006142738482850161423a565b91505092915050565b60008160e01c9050919050565b600060033d11156142a85760046000803e6142a560005161427c565b90505b90565b600060443d10614338576142bd61278f565b60043d036004823e80513d602482011167ffffffffffffffff821117156142e5575050614338565b808201805167ffffffffffffffff8111156143035750505050614338565b80602083010160043d038501811115614320575050505050614338565b61432f82602001850186612a6f565b82955050505050505b90565b7f455243313135353a207472616e7366657220746f206e6f6e2d4552433131353560008201527f526563656976657220696d706c656d656e746572000000000000000000000000602082015250565b6000614397603483612994565b91506143a28261433b565b604082019050919050565b600060208201905081810360008301526143c68161438a565b9050919050565b7f455243313135353a204552433131353552656365697665722072656a6563746560008201527f6420746f6b656e73000000000000000000000000000000000000000000000000602082015250565b6000614429602883612994565b9150614434826143cd565b604082019050919050565b600060208201905081810360008301526144588161441c565b9050919050565b600060a0820190506144746000830188613023565b6144816020830187613023565b61448e6040830186612877565b61449b6060830185612877565b81810360808301526144ad8184614199565b9050969550505050505056fea2646970667358221220edcc800b2c375dad512cf24164d854c6b06617d78ee39526884963bdcffd7e7464736f6c6343000813003368747470733a2f2f6578616d706c652e636f6d2f746f6b656e2f7b69647d2e6a736f6e",
  "immutableReferences": {},
  "source": "// SPDX-License-Identifier: MIT\npragma solidity ^0.8.0;\n\nimport \"@openzeppelin/contracts/token/ERC1155/ERC1155.sol\";\nimport \"@openzeppelin/contracts/token/ERC1155/extensions/ERC1155Burnable.sol\";\nimport \"@openzeppelin/contracts/access/Ownable.sol\";\nimport \"@openzeppelin/contracts/utils/math/SafeMath.sol\";\n\n\ncontract MyNFTMarketplace is ERC1155, ERC1155Burnable, Ownable {\n    struct Token {\n        uint256 tokenId;\n        uint256 price;\n        bool forSale;\n        address payable creator;\n    }\n\n    struct LoyaltyProgram {\n        uint256 threshold;\n        uint256 loyaltyPercent;\n    }\n\n    mapping (uint256 => Token) public _tokens;\n    mapping (address => bool) private _users;\n    mapping (uint256 => LoyaltyProgram) public _loyaltyPrograms;\n\n    constructor() ERC1155(\"https://example.com/token/{id}.json\") {}\n\n    function mint(address to, uint256 tokenId, uint256 amount, string memory uri, address payable creator) public onlyOwner {\n        _mint(to, tokenId, amount, \"\");\n        _tokens[tokenId] = Token(tokenId, 0, false, creator);\n        _setURI(uri);\n    }\n\n    function buy(address payable seller, uint256 tokenId) public payable {\n        Token storage token = _tokens[tokenId];\n        require(token.forSale, \"Token is not for sale\");\n        require(msg.value == token.price, \"Incorrect payment amount\");\n\n        // address payable seller = payable(owner(tokenId));\n        address payable creator = token.creator;\n        uint256 loyaltyFee = calculateLoyaltyFee(msg.value, creator, tokenId);\n\n        // Transfer the token to the buyer\n        _safeTransferFrom(seller, msg.sender, tokenId, 1, \"\");\n\n        // Update the token state\n        token.forSale = false;\n        token.price = 0;\n        //use safemath\n        uint256 seller_price=msg.value-loyaltyFee;\n        // Pay the seller and the creator\n        seller.transfer(seller_price);\n        creator.transfer(loyaltyFee);\n    }\n\n    function sell(uint256 tokenId, uint256 price) public {\n        Token storage token = _tokens[tokenId];\n        require(token.tokenId != 0, \"Token does not exist\");\n        require(balanceOf(msg.sender, tokenId) >= 1, \"You do not own this token\");\n\n        token.forSale = true;\n        token.price = price;\n        setApprovalForAll(address(this), true);\n    }\n    \n    function setLoyaltyProgram(uint256 threshold, uint256 loyaltyPercent) public {\n        _loyaltyPrograms[threshold] = LoyaltyProgram(threshold, loyaltyPercent);\n    }\n\n    function removeLoyaltyProgram(uint256 threshold) public {\n        delete _loyaltyPrograms[threshold];\n    }\n\n    function calculateLoyaltyFee(uint256 amount, address creator, uint256 tokenId) private view returns (uint256) {\n        LoyaltyProgram memory loyaltyProgram = _loyaltyPrograms[tokenId];\n\n        if (loyaltyProgram.threshold == 0 || !isUser(creator) || amount < loyaltyProgram.threshold) {\n            return 0;\n        }\n        //use safemath\n\n        uint256 loyaltyFeeAmount = amount*loyaltyProgram.loyaltyPercent/100;\n        \n        return loyaltyFeeAmount;\n    }\n\n    function addUsers(address[] memory users) public onlyOwner {\n        for (uint256 i = 0; i < users.length; i++) {\n            _users[users[i]] = true;\n        }\n    }\n\n    function removeUsers(address[] memory users) public onlyOwner {\n        for (uint256 i = 0; i < users.length; i++) {\n            _users[users[i]] = false;\n        }\n    }\n\n    function isUser(address user) public view returns (bool) {\n        return _users[user];\n    }\n}\n",
  "sourcePath": "/Users/javiershen/Documents/GitHub/prueba-tecnica-sede/1155/contracts/MyNFTMarketplace.sol",
  "compiler": {
    "name": "solc",
    "version": "0.8.19+commit.7dd6d404.Emscripten.clang"
  },
  "schemaVersion": "3.4.13",
  "updatedAt": "2023-03-14T12:32:52.229Z",
  "networkType": "ethereum",
  "devdoc": {
    "events": {
      "ApprovalForAll(address,address,bool)": {
        "details": "Emitted when `account` grants or revokes permission to `operator` to transfer their tokens, according to `approved`."
      },
      "TransferBatch(address,address,address,uint256[],uint256[])": {
        "details": "Equivalent to multiple {TransferSingle} events, where `operator`, `from` and `to` are the same for all transfers."
      },
      "TransferSingle(address,address,address,uint256,uint256)": {
        "details": "Emitted when `value` tokens of token type `id` are transferred from `from` to `to` by `operator`."
      },
      "URI(string,uint256)": {
        "details": "Emitted when the URI for token type `id` changes to `value`, if it is a non-programmatic URI. If an {URI} event was emitted for `id`, the standard https://eips.ethereum.org/EIPS/eip-1155#metadata-extensions[guarantees] that `value` will equal the value returned by {IERC1155MetadataURI-uri}."
      }
    },
    "kind": "dev",
    "methods": {
      "balanceOf(address,uint256)": {
        "details": "See {IERC1155-balanceOf}. Requirements: - `account` cannot be the zero address."
      },
      "balanceOfBatch(address[],uint256[])": {
        "details": "See {IERC1155-balanceOfBatch}. Requirements: - `accounts` and `ids` must have the same length."
      },
      "isApprovedForAll(address,address)": {
        "details": "See {IERC1155-isApprovedForAll}."
      },
      "owner()": {
        "details": "Returns the address of the current owner."
      },
      "renounceOwnership()": {
        "details": "Leaves the contract without owner. It will not be possible to call `onlyOwner` functions anymore. Can only be called by the current owner. NOTE: Renouncing ownership will leave the contract without an owner, thereby removing any functionality that is only available to the owner."
      },
      "safeBatchTransferFrom(address,address,uint256[],uint256[],bytes)": {
        "details": "See {IERC1155-safeBatchTransferFrom}."
      },
      "safeTransferFrom(address,address,uint256,uint256,bytes)": {
        "details": "See {IERC1155-safeTransferFrom}."
      },
      "setApprovalForAll(address,bool)": {
        "details": "See {IERC1155-setApprovalForAll}."
      },
      "supportsInterface(bytes4)": {
        "details": "See {IERC165-supportsInterface}."
      },
      "transferOwnership(address)": {
        "details": "Transfers ownership of the contract to a new account (`newOwner`). Can only be called by the current owner."
      },
      "uri(uint256)": {
        "details": "See {IERC1155MetadataURI-uri}. This implementation returns the same URI for *all* token types. It relies on the token type ID substitution mechanism https://eips.ethereum.org/EIPS/eip-1155#metadata[defined in the EIP]. Clients calling this function must replace the `\\{id\\}` substring with the actual token type ID."
      }
    },
    "version": 1
  },
  "userdoc": {
    "kind": "user",
    "methods": {},
    "version": 1
  }
}